:020000040800F2
:1000000000A00020C10000089B310008AF49000893
:1000100000000000000000000000000000000000E0
:100020000000000000000000000000009B310008FC
:1000300000000000000000009B3100089B31000818
:100040009B3100089B3100089B3100089B31000860
:100050009B3100089B3100089B3100080901000812
:100060009B3100089B3100089B310008FD0000080F
:100070009B3100089B3100089B3100089B31000830
:100080009B3100089B3100089B310008151E0008B9
:100090009B3100089B3100089B3100089B31000810
:1000A0009B3100089B3100089B3100089B31000800
:1000B0009B3100089B3100089B3100089B310008F0
:1000C00003F06EF8084809490022814201D004C0BB
:1000D000FBE707480749084A814202D008CA08C01E
:1000E000FAE701F047F800DE50000020A0020020EF
:1000F0000000002050000020185C000880B500AF10
:10010000042001F0F3FE80BD80B500AF01F0E8FBF4
:1001100080BDD4D4F0B503AF85B00446007B012682
:100120000028039609D0032845D1A07A00280AD0D8
:10013000032821D0214804F0D5F802910020256839
:100140006560A06001E00291656800212846019188
:10015000324601F0A1FB04AA5170304010702A7899
:100160000F23134012099202164D5259DA40D2075A
:1001700018D061722072029925460835284601F090
:10018000A9FC002805D0032103982173A17205B0B2
:10019000F0BD284601F07EFC002001212173A172F0
:1001A00005B0F0BD04A801F075FC01210198217390
:1001B000A17205B0F0BD024804F094F87053000835
:1001C000A052000810000050F0B503AF83B0044601
:1001D000007B0125002809D003283AD1A07A002805
:1001E0000AD0032822D01C4804F07CF8019100209A
:1001F00026686660A06001E0019166683046294685
:100200002A4601F049FB02AA51702840107032784A
:100210000F23134012099202114E9259DA40D2076D
:1002200001D002A80CE061722072019926460836BE
:10023000304601F04FFC002801D0032004E0304696
:1002400001F028FC012000252073A072284603B08D
:10025000F0BD024804F046F880530008B052000890
:1002600010000050F0B503AFB5B00446F04814904C
:10027000159400200E90189014A8179016901AA8A4
:100280001B300F900520069000070D902046283067
:100290000B9023464033264680362046A0301090EF
:1002A0002046C0300A902246E03212946034607DCD
:1002B000012108910994129D109C119213964000FF
:1002C00078448088400087440500D204D20461014C
:1002D00075019D001AAE30461F300F21059304F0C2
:1002E000A6FA0124200215210F9A505200200790EF
:1002F000D07090700323190202930391080A507082
:1003000011700620B07681204000308205200490D4
:10031000307302203071D474312040013083137265
:10032000C4481F90304602F02BFE27A80C9404818D
:10033000C1492891C149279102F092FC024620460A
:10034000049C214601F056FB0798029901F04CFBF2
:10035000024607200F90214601F04CFB2AA801F02D
:100360007BF901F01BF90646B44902F039FC029012
:10037000B34C201D02F0E2FB206801904168B14AB5
:100380000A40B149511841602E65139E6C65109C5E
:100390000C9B1906AD4A05988261C161099A1372D6
:1003A0000F98D07107985071A9491160019B196885
:1003B000A84A0A400298C1B2C90051180398091806
:1003C000453119602AA8049901700C9901F0E0FAEE
:1003D00007992A980C9AD2032923DB00AB62119B60
:1003E000E96229636963AA63E963059A117350732B
:1003F000A964117009980C9A0275E966022900D85F
:10040000AAE3D0E0284678300F9011460831107AE0
:10041000002817D0032800D0ACE00C9130784000C1
:1004200078448088400087440A00AB0022043A00E8
:100430002D0049006700580074001E000F000F983F
:100440000068E4E01068D7E030460830217B0029DE
:100450006FD0032900D090E02178002900D17CE002
:10046000032963D14FE1307A4000C0467844808848
:10047000400087440400F903FC0319010F01139E97
:10048000706800E130460830217B002955D00329EF
:1004900073D12178002962D0032947D185E30A9CD2
:1004A000204618300790207E002848D003286AD1C3
:1004B000207C022859D02568129ED5E20A99084668
:1004C00018300790087E00283CD003285BD1087CB8
:1004D00002284AD00D68129E63E1307A4000C0467F
:1004E00078448088400087440400BC03C2033E0275
:1004F0003402139E706825E230460830217B0029C3
:1005000023D0032939D1217800292AD003290DD1FC
:10051000F0E130460830217B00291AD003292CD184
:10052000217800291FD0032900D14BE2A34803F012
:10053000D9FE2646A1680E9DD4E0A16826E3B268E4
:10054000F36871E2B268F3680BE126462C46B168A5
:10055000BEE12646A1680E9D23E20CC8C8E00CC887
:100560001AE30CC8BDE10CC821E295481821954A50
:1005700003F078FE944803F0B5FE944803F0B2FE11
:10058000934803F0AFFE934803F0ACFE2846783062
:1005900016A900F0FFFB119A002813D00321099A35
:1005A000517535B0F0BD0020187558821876284670
:1005B000503020612846783016A900F0EBFB002867
:1005C0001DD1119A107E03280DD1207B03280AD15A
:1005D000207A032807D16079032804D12846A43063
:1005E00002F068F8119A002010720B9810602946EA
:1005F00078310F91114608310C91506004E00421CC
:10060000099A517535B0F0BD00213170A867E867CF
:100610002421425C014624315200C0467A4492882B
:10062000520097441900F50192008C012D00C0463C
:10063000C85900080200080103000001C0C62D00CF
:1006400090580008FBE0FFFF041700000301042599
:1006500001010700005CFFFF4A780F2313401209D5
:1006600092020D9C22431569DD40012215406B4228
:100670006B41007E584000D1C0E20A70129DB4E286
:10068000002131727060017E0E9A32762530F06062
:10069000002909D028468C3016A9FFF73BFD002819
:1006A00000D0BCE2264608E0264628468C3016A933
:1006B000FFF78AFD002800D0AFE21399087E0328D7
:1006C00006D1887D032803D11298943001F0E2F915
:1006D0000120139A10720E9D35731298C16FB1608C
:1006E000104608300A6802604B6843603446357033
:1006F0002AA802F027FF2C982A992B9A139E316181
:1007000072613076129D2846903016A902F038FFAB
:1007100003210122002800D111462173217000D04D
:1007200074E2E96F0846243042780F23134012091F
:1007300092020D9C22431269DA4001231340097E84
:10074000994200D151E203214EE282683061B260E9
:10075000C368F360002030750A990876084618309F
:100760000790284690302AA9059170C870C170C8BA
:1007700070C130A802F0E6FE3298049030980390E1
:10078000319A109D08352B46059951C951C351C95D
:1007900051C3129E0A9803998160C2600499017442
:1007A0000560C83628794000784480884000874436
:1007B000130058025E0239001B00C0462053000897
:1007C000CC530008E453000810530008E05200081E
:1007D000D0520008305300082868017E00222A7594
:1007E0002530A86000291DD02846083016A9FFF73B
:1007F000EBFC042100280E9C1DD0297116A930465F
:1008000002F0BEFE002800D01FE20A9A107C0221EE
:1008100011740228089D00D11EE21099087B03285C
:100820001DD11EE02846083016A9FFF773FC0321EE
:1008300000280E9CE1D1287D032806D1A87C03283E
:1008400003D12846103001F025F902200A990874D6
:100850000120287125461099087B032801D004281F
:1008600009D1087F032806D1887E032803D1129876
:10087000B83001F00FF9012607980670129CE16F5D
:100880000020002D1FD00862E06F24210322425473
:10089000139D2E700F9800F031FA0C9806702E46BA
:1008A0000998007D01282546109C119B00D07AE60E
:1008B000E86E401C032104F069F8119BE9660229E7
:1008C00000D970E648E1109E3073B160139808308B
:1008D0000E9D0A6802604B684360357025463446B9
:1008E000139E2AA802F02EFE2C982A992B9A316189
:1008F000726130762846903016A902F041FE03213D
:100900000122002800D111462173217000D08CE112
:10091000E86F2521415C0F220A40090989020D9BDD
:1009200019430B69D34001210B405A425A41037EBF
:10093000934200D15AE1026A521C026264E0002133
:1009400031727060017E0E9A32762530F060002997
:1009500009D028468C3016A9FFF736FC002800D0B5
:1009600058E1264608E0264628468C3016A9FFF7AF
:10097000D1FB002800D047E11399087E032806D157
:10098000887D032803D11298943001F083F8012068
:10099000139A10720E9D35731298C16FB160104694
:1009A00008300A6802604B684360344635702AA8F4
:1009B00002F0C8FD2C982A992B9A139E316172611E
:1009C0003076129D2846903016A902F0D9FD0321F9
:1009D0000122002800D111462173217000D017E1B7
:1009E000E86F2521415C0F220A40090989020D9B0D
:1009F00019430B69D34001210B405A425A41037EEF
:100A0000934200D1F2E00162E86F24228154EDE0CC
:100A100002693061B2604369F360002030750A9961
:100A20000876084618300790284690302AA9059184
:100A300070C870C170C870C130A802F083FD3298D0
:100A4000049030980390319A109D08352B460599F3
:100A500051C951C351C951C3129E0A9C0398A06049
:100A6000E260049820742560C83628794000C046AA
:100A700078448088400087440400F700FA0024008E
:100A80000C002868017E00222A752530A860002904
:100A900017D02846083016A9FFF73CFB0421002890
:100AA00017D1287D032806D1A87C032803D1284626
:100AB000103000F0EFFF0220207401202871002484
:100AC00016E02846083016A9FFF77EFB0321002810
:100AD000E7D0297116A9304602F052FD002800D057
:100AE000ADE0207C022121740228089C00D1B3E0F3
:100AF0001098007B032801D004280BD11098007FA8
:100B0000032807D11098807E032803D11298B830AB
:100B100000F0C0FF012607980670129DE96F0020C3
:100B2000002C2DD00862E86F242104224254139C2B
:100B300026700F9800F0E2F80C9806700999087D6D
:100B400046400E7526460028109C119B00D02AE5D1
:100B5000E96E022900D926E5002018762846503093
:100B600020610320484344490A18937811990B7572
:100B70004149085C5178090208181199488205E535
:100B8000109C2073A160139E304608300A680260F2
:100B90004B684360002020702AA802F0D3FC2C98F8
:100BA0002A992B9A3161726130762846903016A9C5
:100BB00002F0E6FC03210122002800D11146217336
:100BC00021701FD1E96F0846243042780F2313406B
:100BD000120992020D9C22431269DA40012313404C
:100BE000097E994201D002210170109C01203070D1
:100BF0000F9800F083F81198406805E5032008700D
:100C0000129DF2E7042011E0032004E00A200DE029
:100C100008200BE00420072103E0032000E004206B
:100C20000921139A1170107201E0062030700699A4
:100C3000099A03200C9B1870517535B0F0BD032044
:100C40000799087013990870F1E703200799087055
:100C5000069913980170EBE708482821084A03F029
:100C60005FFB044803F03EFB014803F03BFBFEDE64
:100C700000530008F05200084C540008F4530008D8
:100C80001C54000880B500AF7521024A002353545C
:100C9000106780BD5000002080B500AF82B00446D0
:100CA00002F081FA104DAE69002E01D0314600E00D
:100CB0000321A96102F084FA002E0DD10E4868626A
:100CC0002046FFF7DFFF2046294602F0DAFA2046E9
:100CD00002F00EFB20BFFAE70448009004482B21E5
:100CE00001AA044B03F0DAFA500000203C5400083B
:100CF000905300082C54000865020008D0B502AFDC
:100D0000017ACB1E062B3AD80146203102464232E8
:100D10007B441B795B009F4403320332153215007C
:100D2000937F002B1BD0032B29D1097D042901D0EF
:100D3000032924D19178032921D1117803291ED1C7
:100D4000302118E0027C032A01D0042A17D1097847
:100D5000032914D1817F032911D11C300DE0027FBA
:100D6000042A01D0032A0AD10A7B032A07D1897AEF
:100D7000032904D118211030401800F08BFED0BD9B
:100D800080B500AF82B000200090C043019068465B
:100D9000FFF782FFF0B503AF99B00791054604460F
:100DA0002C3406467D36F078012300280E950994F0
:100DB0000D9608931AD0032800D0BEE1207A0028AF
:100DC00000D1FEE0032800D0BAE12079002800D14C
:100DD000A4E1032800D0B6E16078002800D1A1E1A9
:100DE000032800D141E1D94803F07CFAA86B2860C0
:100DF0007A200C90285C307028467A3041787170E7
:100E00008078B07014A8D549018002F003FB15A8C2
:100E1000D349018002F030FB16A8D24C048002F0C6
:100E20002BFB304602F052FB17A8048002F024FB93
:100E3000701C02F04BFB18A8048002F01DFBB01CD4
:100E400002F044FB00F0A0FB28463C303E210B9012
:100E50000A9103F04CFD3B20C043109010E0129823
:100E6000400040B2C0090F990840119940187921FB
:100E7000505410980C30109035460D9E00D196E0DD
:100E80007120C2437720C343B078C107139200D1C9
:100E90001A46810149B2C909602421408918109A73
:100EA000AA18757812953578842691554107194608
:100EB00000D51399060176B2F609264089198326D2
:100EC0009155C106194600D51399860076B2F609E8
:100ED00026408919822691551721CE4341B2002917
:100EE0001196314600D41946400040B2C00906268A
:100EF0000F963040401881215054E807139800D1D4
:100F00001846A90149B2C909214008188021505446
:100F10006807184600D51398290149B2C90921402C
:100F200040187F215054E806184600D51398A900B0
:100F300049B2C909214040187E21505468B20028A6
:100F4000119800D41846690049B2C9090F9D29407B
:100F500008187D2150541298C007139800D11846E4
:100F6000129DA90149B2C909214008187C21505499
:100F7000680718460E9E00D51398129D290149B2A4
:100F8000C909214040187B215054E806184600D575
:100F90001398129DA90049B2C909214040180C9923
:100FA000505468B2002800D559E7119357E7002044
:100FB000099C20726D600B9AAA600A9BEB60284620
:100FC00001E02B1D0DCB0068294610310DC1002119
:100FD0002171A862EA612B62002161701946686282
:100FE000002973D00A914068006801684023139378
:100FF0009943089B01606D6A297E48424841E97D1A
:10100000072919466AD001290B926BD0687A00280B
:1010100000D180E0E97A686803685448002202241D
:101020000B9E00960A9E01960294039204920590EC
:101030002E460A360C33304601F0F8FE304601F0F9
:10104000CFFEA87A0C2874D20E9D696A4968096897
:101050004A6822434A60696A496809680A68139BBA
:101060001A430A60099C20700D9E2046079901F0E2
:10107000CDFB002802D00321089829E0204601F08A
:1010800019FB0320C202696A496809688B68134228
:1010900012D08B6813420FD08B6813420CD08B6830
:1010A0001342F3D108E08A68120608D58A6812064E
:1010B00005D58A68120602D58A681206F3D40A6832
:1010C00040239A430A604A6882434A600020012113
:1010D000217221716170F17019B0F0BD01460129D2
:1010E0000B9293D16B6819680A68139882430A605F
:1010F000012129760721E9751F2109021868426834
:101100008A4317210902511841600E98456A687A8E
:10111000002800D07EE7144803F0B6F82B461033C1
:101120000DCB56E7EA69296AA86A68620029CDD022
:1011300058E70C210E4A03F0DFF8074803F0D2F815
:10114000044803F0CFF8024803F0CCF860530008DD
:10115000C0520008BC5300085854000809000000A1
:1011600001000000060000005053000800000103C9
:101170004053000880B500AFFFF702FE80B500AF16
:1011800084B0044602F023F80C480178002912D1FB
:1011900001210170019402A80949018002F03AF985
:1011A00003A80849018002F067F901A8064902F086
:1011B0006FF900F0E9F900F009F8C046500100208D
:1011C0000A000000030000006854000880B500AF6A
:1011D00002F007F880B500AF006803F0BFF880BDEB
:1011E000F0B503AF87B0002900D196E00446461859
:1011F0004D48C07801960AE0012800D08FE0002019
:1012000049490871C870641CB44200D185E0217856
:10121000C2B2072A18D200294AD002A80170434856
:10122000C06A032101400229414D00D0414D3F4891
:10123000183002A90122A8470028F8D001286ED151
:10124000394A1179D0783AE0002951D005A80170C7
:101250003648C06A0321009108400228344E00D06D
:10126000344E324D183505A901222846B0470028D2
:10127000F7D0012853D12C49C878401CC870C1B29E
:101280008629019EBFD106A8FF2101702748C06AA8
:10129000009908400228264E00D0264E06A90122B9
:1012A0002846B0470028F9D0012838D1019EA6E78A
:1012B000012393401C49097919431B4A1171401CB1
:1012C000D070C2B2072A9ED10A069CD003A8017032
:1012D0001648C06A032101400229154D00D0154D62
:1012E0001248183003A90122A8470028F8D083E744
:1012F00079308021014304A801700C48C06A0321A1
:10130000014002290A4D00D00A4D0848183004A9AE
:101310000122A8470028F8D06EE707B0F0BD0121F0
:10132000054B0A4602F062FF510100200800002030
:1013300025140008AD140008D4540008F0B503AF1C
:1013400083B0314A1078002858D0D078002832D0A5
:10135000072810D20021C9438140107908437F211A
:10136000014001A80170294CE06A032101400229D3
:101370000ED0284D0DE07930802101436846017080
:10138000224CE06A0321014002290AD0214D09E0E4
:101390001F4D183401A901222046A8470028F9D082
:1013A00007E01B4D1834694601222046A847002853
:1013B000F9D001281DD102A800260670134CE06A5E
:1013C00003210140022901D0124D00E0104D1834D4
:1013D00002A901222046A8470028F9D0012808D1F7
:1013E00009490E71CE7048780E7001F0E9FE03B025
:1013F000F0BD0121084B0A4602F0F8FE07483921EA
:10140000074A02F093FFC046510100200800002067
:1014100025140008AD140008D4540008A85400088E
:10142000C4540008F0B503AF83B002910446002015
:10143000002A11D02569E368BFF35F8F0126B1024E
:101440009D4204D9DE43AD19002D0BD104E0002DDF
:1014500004D0CD1A002D05D103B0F0BDDD436D18C9
:10146000002DF9D0954200D31546EE188E42019119
:101470000DD9C81A00906068C0180299009A03F04C
:10148000D1F90098029909182A1A606803E0606887
:10149000C01802992A4603F0C5F90198401E06407B
:1014A000BFF35F8FE660284603B0F0BDF0B503AF31
:1014B00083B0164601229402A64200D32646C36892
:1014C0009D19BFF35F8FA54202900ED9E21A0192D7
:1014D0004268D0180091019A03F0A4F9019800998C
:1014E0000918321A0298406802E04268D018324661
:1014F00003F098F9601E0540BFF35F8F0298C56046
:10150000304603B0F0BDD4D4B0B502AF82B001F024
:101510004AFE16490A78002A1DD101220A70487035
:101520008878002815D18A7001A800210170124C1A
:10153000E06A03210140022901D0114D00E00F4D66
:10154000183401A901222046A8470028F9D0012813
:1015500006D102B0B0BD06483D21064A02F0E6FEC3
:101560000121084B0A4602F041FEC046510100200D
:10157000785400089854000808000020251400083A
:10158000AD140008D454000880B500AFFFF7D6FEB4
:1015900080BD80B500AFFFF723FE80BD80B500AFF2
:1015A00082B00A48C069002801D002B080BD01A8FD
:1015B0000749018001F02EFF064801F067F906484F
:1015C00001F064F9FFF7E0FF01F0ACFFDC0100205F
:1015D0001600000008550008EC54000880B500AF64
:1015E00082B016480068800112D41548006A0028AD
:1015F00012D168461649018001F00CFF124801F033
:1016000045F9144801F042F9FFF7BEFF01F08AFFE7
:101610000B48806A002801D002B080BD01A80949AA
:10162000018001F0F7FE084801F030F9074801F0A9
:101630002DF9FFF7A9FF01F075FFC04688100240A1
:10164000DC010020170000002C550008FC540008A5
:10165000180000001C55000880B500AF01F0A3FD84
:1016600001F0AEFD80BDD4D4F0B503AF8BB0037AEA
:101670000246980001A1085819468746A916000895
:101680008D160008991600085318000810790528CF
:1016900000D1DBE0106805E0507A002800D1DFE0DF
:1016A0007D2000020290012103910793012319027A
:1016B000754C20680843206015792068084208D1DD
:1016C0002068084205D12068084202D120680842FB
:1016D000F3D0052D284600D104200690507A6B4A9D
:1016E00000280FD0506801210143516050688007E5
:1016F00008D45068800705D45068800702D4506829
:101700008007F3D5166830460593184041424141A1
:101710006C1F601E84414C40B005800F0495079DEE
:10172000281A414241416B426B41049DF00B5840E5
:101730000840204004233146019319404B424B415D
:101740002C1F6142614159400140052D0DD00846D2
:10175000069C042C059B11D0F106890F611A4C429E
:101760004C410440052D0CD11FE0802333405842EA
:1017700058410840069C042C059BEDD10446052DDC
:1017800013D0002C11D0106880210143116001207A
:10179000C1021068084208D11068084205D11068DB
:1017A000084202D110680842F3D01068002C49D1D9
:1017B000190408431060106888431060052D33D069
:1017C000042D06D0194614680698042806D1204630
:1017D00008E00521146806980428F8D01D208443E9
:1017E000E8002043019CA043084310601068800774
:1017F00008D41068800705D41068800702D41068E8
:101800008007F3D510688021014311600120C002D8
:101810001168014208D11168014205D111680142E5
:1018200002D111680142F3D0079C002C09D0106846
:1018300081061CD4D903174B18402302C018084353
:1018400010601068039802990BB0F0BD0D4802F0CB
:101850001BFD09A80949018001F0ECFD01F062FEC1
:1018600008A80749018001F0E5FD01F05BFE0AA828
:101870000749018001F0DEFD01F054FE0D0000007B
:101880000C00000034550008007000409010024029
:101890000B000000DF7CFFFFF0B503AF83B00292C6
:1018A0000C4606780F25354001F07DFC019031098A
:1018B0002846224600F066FA0124AC4001F073FC91
:1018C00006490A6822430A6001F07AFC019801F097
:1018D00077FC0298294603B0F0BDC046801802404C
:1018E000F0B503AF81B01E4A10685168014389B258
:1018F000506F884350670091002925D019491AA2DA
:10190000009E002E05D0704230404843C00E145C4B
:1019100000E020241D4D02E02024002E14D00F2CC6
:1019200018D8E000281801F05EFC0120A040864392
:10193000F2D0002EF0D0704230400A494843C00E29
:1019400009A10C5C002EEAD10548009901604160B4
:1019500001B0F0BD10210C4A204602F0CDFCC0467B
:101960000C18024031B57C0700011C021D0E180343
:101970001E16140F191104081F1B0D17151310073D
:101980001A0C12060B050A094455000858010020DC
:10199000F0B503AF81B00C46054601F004FC0090A1
:1019A0002A780F2313405D000321A94012099202F7
:1019B0000B4E90598843E4B2AC400443945101204B
:1019C0009840084BD4588443D4500520000713583E
:1019D0008B431350009801F0F3FB01B0F0BDC046FB
:1019E0000C0000500400005080B500AF0904081836
:1019F00080BDD4D4F0B503AF83B001924308042571
:101A00001D4005231A070292C4B22409A402A61895
:101A100072190092166A4307DD0E0F231A46AA4078
:101A200096431940A9403143009A11621840420080
:101A300003259540009214496358AB4301998E05E4
:101A4000B60F96401E43104AA65001220B46134083
:101A5000834082400D48265896431E432650FF205F
:101A600000040840000C00998840094AA358AB4381
:101A70000343A350029BE058A84302228A4002433A
:101A8000E25003B0F0BDC0460C000050040000500E
:101A900008000050D0B502AF0446007800280CD0F2
:101AA00001F081FB08490A686378202B06D20124E3
:101AB0009C40A2430A6001F083FBD0BD03481D2176
:101AC000034A02F02DFCC04680180240545500081D
:101AD00074550008D0B502AF4478102C0BD2E0004A
:101AE000084A1018096801F09DFB07480168E140A9
:101AF00001200840D0BD1021014A204602F0FCFB25
:101B000084550008580100208018024080B500AFBD
:101B100082B00078032804D9001FC0B2001D02B0B3
:101B200080BD01A80249018001F084FC01F0FAFCAB
:101B30001A000000F0B503AF91B00D900125280602
:101B4000854C23688343236007956D0620682842EF
:101B500008D02068284205D02068284202D020689A
:101B60002842F3D10E78042E09D100260D9B1E6069
:101B70001021082230469E50585011B0F0BD4879CF
:101B80000C9008790B90CB7888780A904878099067
:101B9000B00002A10858089304968746251D000846
:101BA000AD1B0008B91B0008C51B00081069002800
:101BB00000D1BEE014200AE01068002800D1BBE08C
:101BC000042004E09068002800D1B8E00C201058F0
:101BD00006900EA80C990170FFF798FF06460C9826
:101BE000032800D882E00998411C069802F015FEEF
:101BF0004643069600260B98202832460AD0401EFF
:101C0000C1B21F29069878D2891C02F006FE059001
:101C1000079A0B9807920A9B082B32460BD0581E46
:101C2000C0B2072870D2811C069802F0F6FD02901F
:101C300001220A9B0B980392089908290BD0481E91
:101C4000C0B2072867D2811C069802F0E6FD019019
:101C500001260A9B0B9809990901049A8A180C9984
:101C600009021143012220282DD11206082B32D15E
:101C7000089B0598082B07D00590404801405B075A
:101C8000C91809180598491C0D9BE160216811438A
:101C900021602168294208D12168294205D12168A3
:101CA000294202D121682942F3D00799196058606E
:101CB000039898600298D8601421102201989E50D1
:101CC000585011B0F0BD430459181304C9180A9BA9
:101CD0001206082BCCD01846274B19404306C918CA
:101CE0008918089B0598082BC6D1CDE70FA81E4977
:101CF000018001F09FFB01F015FC0FA81B4901803A
:101D000001F098FB01F00EFC0FA81949018001F0C9
:101D100091FB01F007FC0FA81649018001F08AFB36
:101D200001F000FC0FA81649018001F083FB01F0CF
:101D3000F9FB0FA80B4904E00FA8094901E00FA81F
:101D40000649018001F066FB10A800F0AFFDFFF727
:101D50001BFC01F0E7FBC046001002400F00000032
:101D600010000000110000001B0000001C0000001B
:101D70001D0000001E00000077FFFF70FFFFFF0F37
:101D80000E000000F0B503AF83B002920E46044689
:101D9000C5B201F008FA102D2CD20190A007C00E98
:101DA000FF2181400C222240174C1219136E8B43E5
:101DB000F1B281401943116602980006800D134963
:101DC0000958A9400126AE402268B2430A43226066
:101DD0000F490858A8406168B1430143616001F0B0
:101DE000E2F9E660266101F0EBF9019801F0E8F90B
:101DF00003B0F0BD02481C21024A02F091FAC0462D
:101E000094550008B055000800180240CC55000851
:101E1000C055000880B500AF014800F0BBFD80BD93
:101E200038000020F0B503AF81B0FF210A022A4933
:101E30000B689343C4B222029A180A600122550229
:101E40000092264B1D600D68254E354024042D1947
:101E50000D6095021D600E68214A164034190C6011
:101E60001D600D681F4C254000062D180D60009A5E
:101E7000D5021D600E68264036180E601D600E6883
:101E8000264036180E601D600E68264036180E601B
:101E90001D600E68264036180E601D600E682640D4
:101EA00036180E601D600E68264036180E601D60E4
:101EB0000E68264036180E601D600E6826403018E9
:101EC00008601D6008480168114301600168022232
:101ED0000A43026001B0F0BD08E400E000E100E068
:101EE000FFFF00FFFFFFFF0048100240F0B503AF07
:101EF00083B0C0B20B283AD8142529464143294A59
:101F00005418E168266900910968082E2AD2B300A6
:101F10000A46DA4012072ED40C2242432048841885
:101F20007543009E701904259D400D4202D08268C1
:101F3000520711D402259D400D4211D080688007C0
:101F40000ED5756001F02FF9A168BFF35F8F491CB2
:101F5000A16001F035F900E07560204601F043F919
:101F600003B0F0BD10481C21104A02F0D9F90C2131
:101F70000A4A02F0C1F910340098019002A80C49F5
:101F8000018001F047FA01A800F09CFC204600F017
:101F9000A9FCFFF7F9FA01F0C5FAC0460856000897
:101FA000100200201856000808570008245700089F
:101FB00012000000F0B503AFADB002468F4E30689E
:101FC000C00715D1306868210143942081433160F6
:101FD00030680121014331603068800708D43068DF
:101FE000800705D43068800702D430688007F3D5B5
:101FF000B0688006400F11D00020B060B068800645
:10200000400F0BD0B0688006400F07D0B068800644
:10201000400F03D0B0688006400FEFD11046083063
:102020001192FFF721FB119B04900C46587C059000
:1020300098680290187B0690987E002510281095CD
:102040001FD03168F422914302010A430821114351
:102050003160316801221092114331603168890783
:1020600008D43168890705D43168890702D43168FA
:102070008907F3D50C2800D357E28000604908583F
:102080000B9001941946203101200202129208910E
:10209000897B07910129294615D12C463168129A6E
:1020A0001143316001210D46890232680A4208D18C
:1020B00032680A4205D132680A4202D132680A42C5
:1020C000F3D0294625461A79022A1CD00D4605214F
:1020D0000904D2070A4600D102041B680A93336838
:1020E0008B439918119B3160410432680A4208D130
:1020F00032680A4205D132680A4202D132680A4285
:10210000F3D029460546987F3E4A0F9002280E9547
:102110002BD010680124204310601068800708D479
:102120001068800705D41068800702D41068800703
:10213000F3D50F98C00718D00D4601F034F80D9074
:10214000314800F009FD0D9801F03AF8119B032089
:1021500000072E494A6882436007101848600868E3
:10216000602202430A6029460E9D0B981890109831
:1021700017900A9816901595F848149009911391A4
:102180001C7D042C16D10120010632688A4332607E
:1021900040063168014208D03168014205D03168FB
:1021A000014202D031680142F3D100201D901B9002
:1021B00019900DE01FAD681C19461531052202F07B
:1021C00031FB2C7019A813AA2946FFF7B3FC119B09
:1021D000187F810001A251580E9A8F4611220008E3
:1021E0003D220008212200082F2200084725000870
:1021F000472500083925000839250008001002404D
:10220000845700089810024014580008006C0040E1
:10221000109900290B990D9116D1D64802F034F887
:10222000002A0A990D910FD1D04802F02DF81D997E
:10223000002900D15EE11E990D9105E00999002960
:10224000C6490D9100D158E1DA7ECB49D140C9078A
:1022500000D15CE103929100C94A5158C94CCAA20D
:10226000002906D015464A420A406243D10E695CF5
:1022700000E020215B7FF1220C93DA40D20700D1ED
:102280004CE10D9BCB40C9490A68129D2A430A6064
:10229000C74A521C1293934205D30223C54A129D8A
:1022A000954205D305E00123C24A129D954200D212
:1022B00000230C6807229443E4180C600C9CA400D3
:1022C000BD4D2D590C6814409C420BD00C68144035
:1022D0009C4207D00C6814409C4203D00C68144008
:1022E0009C42EFD1B168B54A0A401118039A120214
:1022F00089180C9A12038918B160B1688906490FD0
:1023000081420ED0B1688906490F814209D0B16877
:102310008906490F814204D0B1688906490F81427C
:10232000EBD1002D119B2C468B4D964996A205D0E2
:10233000604220404143C80E105C00E0202012990A
:102340000A46C2400C92891A481E8141039107989F
:10235000002804D1012000023168814331600F98C8
:1023600002280DD10124250400F01DFFB16DA94301
:10237000B16500F025FF784D119B2868A0432860C7
:1023800003200002294608390A688243089C6078C5
:10239000000280180860103D286889490140A07833
:1023A00000074018E17889060818217909034018C8
:1023B000617909044018A17989044018E179090577
:1023C0004018217A89050143607A80020843A17A86
:1023D00009020143E07A8007000E0843D97F4906CD
:1023E0000143207800060843217B0143607B80077E
:1023F000000F084328601298002800D180E01C9844
:10240000089019AD26CD00200E9B002B06460C9C93
:1024100002D00A9E002E73D0069B052B02D0029894
:1024200000286DD0002C6BD011962346039CA3404E
:1024300066D000260029314602D0002A11465FD01E
:10244000002D324602D0089A002A59D0049CE40795
:10245000059C02D0019E002E52D00D9D002D4FD024
:102460002B9528AD46C527930C992691239011985A
:10247000209012981F90109800280B990DD025914C
:10248000002C09990ED124940F98022810D03348BB
:10249000474A2292002910D010E001462591002CD5
:1024A0000999F0D07D20040224940F980228EED1DF
:1024B00000222A482292002900D1084621902CA807
:1024C0004149018000F0A6FF2CA84049018000F09E
:1024D000D3FF1FAC204600F07DF8FFF755F83C48CD
:1024E0000ECC0EC00ECC0EC00ECC0EC02ECC2EC00C
:1024F0002DB0F0BD1C4801F0C7FE1D4801F0C4FE20
:102500001FA83049018000F095FF01F00BF81FA8CB
:102510001A49018000F08EFF01F004F81FA822493B
:10252000018000F087FF00F0FDFF1FA8094901802E
:1025300000F080FF00F0F6FF1FA80949018000F0BD
:1025400079FF00F0EFFF1FA80649018000F072FF3D
:1025500000F0E8FF14000000981002400024F4008E
:1025600013000000150000006457000854570008CD
:10257000445700083457000801FF0000190000000C
:10258000B457000831B57C0700011C021D0E18036A
:102590001E16140F191104081F1B0D171513100711
:1025A0001A0C12060B050A091F0000000020024049
:1025B000006CDC0201366E01F4570008F880FFFF62
:1025C00030C000C02200000008000000270000000A
:1025D000DC010020B0B502AF82B0044601A8344D42
:1025E000058000F049FF204600F07BFF01A8058030
:1025F00000F042FF201D00F074FF01A8058000F0EC
:102600003BFF2046083000F06CFF01A8058000F079
:1026100033FF20460C3000F064FF01A8058000F075
:102620002BFF2046103000F05CFF01A8058000F071
:1026300023FF2046143000F054FF01A8058000F06D
:102640001BFF2046183000F04CFF01A8058000F069
:1026500013FF20461C3000F044FF01A8058000F065
:102660000BFF2046203000F03CFF01A8058000F061
:1026700003FF2046243000F034FF01A8058000F05D
:10268000FBFE2046283000F02CFF01A8058000F05A
:10269000F3FE20462C3000F024FF01A8058000F056
:1026A000EBFE3034204600F01CFF02B0B0BDC04647
:1026B00028000000B0B502AF00780C2800D396E0E7
:1026C00014210A4642434D4B9A181369082B00D334
:1026D00088E05943D26851180A228A600C2242438A
:1026E000494880180830012201E0002B3CD08D6859
:1026F0008B680468BFF35F8FED0735D06542654195
:102700009B06134600D42B46012B2DD18D688B6878
:102710000468BFF35F8FED0726D0654265419B06D5
:10272000134600D42B46012B1ED18D688B6804689C
:10273000BFF35F8FED0717D0654265419B061346D7
:1027400000D42B46012B0FD18D688B680468BFF332
:102750005F8FED0708D0654265419B061346C4D4E0
:102760002B46C2E7002B3AD08D688B680468BFF314
:102770005F8FED0733D0654265419B06134600D459
:102780002B46012B2BD18D688B680468BFF35F8FBC
:10279000ED0724D0654265419B06134600D42B46C5
:1027A000012B1CD18D688B680468BFF35F8FED0728
:1027B00015D0654265419B06134600D42B46012B7C
:1027C0000DD18D688B680468BFF35F8FED0706D06D
:1027D000654265419B061346C4D42B46C2E7BFF34E
:1027E0005F8FB0BD06481C21064A01F099FD0C21FF
:1027F000014A01F081FDC0468C5900089C58000830
:102800009C590008B859000810020020B0B502AF6A
:1028100004780B2C2AD80C206043184A1518096834
:10282000284600F0FFFC14204443154909190A69A1
:10283000082A16D25043C968081882688068A968B7
:10284000D207BFF35F8F08D04A424A412021084097
:102850004009104301D00120B0BDBFF35F8F0020BD
:10286000B0BD08481C21084A01F05AFD0C21024A5B
:10287000204601F041FDC0467457000810020020B8
:102880009C5800089C590008B8590008D0B502AF00
:1028900082B0044601A80449018000F0EDFD03CC9C
:1028A00000F0DAFD02B0D0BD0400000080B500AF3A
:1028B00082B001A80249018000F0DEFD02B080BDB7
:1028C00002000000D0B502AF82B0044601A804495E
:1028D000018000F0D1FD204600F003FE02B0D0BD23
:1028E00005000000D0B502AF82B0044601A804493B
:1028F000018000F0C1FD204600F0F3FD02B0D0BD24
:102900000700000080B500AF82B01C4800F024F939
:10291000FEF764FE1A490B68012293430B60002303
:102920004B62C00B401E0090030C1AD1154B08855A
:10293000CB6208680423184308604A61086898431A
:102940000860D00348630320C860D0040E4B1860B1
:1029500018600E4B1860186008681043086002B0D9
:1029600080BD01A80A49018000F054FD6846FFF7C8
:10297000A9FFFEF709FE00F0D5FDC0461958000872
:1029800000400140FFFF000080E200E000E100E0C5
:1029900024000000F0B503AF8BB0039000F003FCFF
:1029A000009063494E6808680A90F043486003202D
:1029B00080030290F00705D1B00720D47007039E72
:1029C0003BD4AAE0039C2069451C256100F0EBFB89
:1029D0000990574800686A0CEB03002502995B18C0
:1029E000554122686168D21AA94101D204210843E5
:1029F0004F490860099800F0E3FBB007DED5039C5F
:102A00002069451C256100F0CEFB0990484800680C
:102A10006A0CEB03002502995B1855412268616836
:102A2000D21AA94101D204210843414908600998FA
:102A300000F0C6FB7007039E6FD5042006900A992C
:102A400001406AD0B06800286FD100200990C043CF
:102A50000490B06030460C30059001200190C00316
:102A60000890334C3069C1030A46089B1A40A36999
:102A70009DB25540430C4A1909984341059800F00E
:102A800037FB0A9103C63268521C3260B268D10328
:102A90000D46089B1D40083E3346A669B6B26E40FF
:102AA000520C8919099E724107900D1A15460A9811
:102AB000854125D2079885B2E562431A0A9D954162
:102AC00002995A1AB541019A00D33246531E9A41CF
:102AD0009200236806998B4313432360039B1A6972
:102AE000D1030D46089E3540A669B6B26E40520C21
:102AF0008919099D6A410798081A0A9882410CD3DE
:102B00002068069988432060049919605960986884
:102B1000002807D11E469960A4E7009800F050FBFA
:102B20000BB0F0BD044801F051FB024801F04EFB30
:102B30000C4001403058000820580008B0B502AFE2
:102B4000044600F030FB0546204600F005F8284614
:102B500000F036FBB0BDD4D4F0B503AF85B0044669
:102B60000079FF282BD126781C4DFF2E08D0B0000D
:102B7000295862781F23134001229A400A432A50A1
:102B8000A078800029580291E2781F2101910A4023
:102B9000294601252B469340029A13430B500858AF
:102BA00000F019FBFF2E08D0B0000C4B19586278CA
:102BB000019C22409540A943195005B0F0BD0390F7
:102BC00004A80549018000F025FC03A8FFF78AFE50
:102BD000FEF7DAFC00F0A6FC250000000010024021
:102BE000B0B502AF82B000292BD00C46054601F0EB
:102BF00014FEAC4228D8032802D2002002B0B0BD97
:102C0000062802D2012002B0B0BD0C2802D2022058
:102C100002B0B0BD182802D2032002B0B0BD2828EF
:102C200002D2042002B0B0BD602802D2052002B05A
:102C3000B0BDC02802D3072002B0B0BD062002B04C
:102C4000B0BD064801F044FB01A80349018000F033
:102C5000F1FB00F067FCC04623000000705800083C
:102C600080B500AF01218279002A04D149020079A0
:102C70000004081880BD090200790004081880BD0E
:102C8000F0B503AF89B01D461646044600F08BFA36
:102C9000A16800297CD10190B868002132460E4617
:102CA000C9430591A160009020460C3006902B4648
:102CB00000F0E8F9002863D001200390C0030890D9
:102CC000364D23460796029424E0531E9A41920003
:102CD000324E33680425AB431343336002990A69CB
:102CE000D3031D46089C25400C46B669B6B26E401B
:102CF000520C9B19079D2E466A41181A049882416E
:102D00003ED3264D2868042188432860059820601A
:102D10006060234634461869C1030A461E46089B74
:102D20001A40AB699DB25540430C4A19634106985D
:102D300000F0DEF903C6083E3269D3031D46089C45
:102D400025403446154EB669B6B26E40520C9B19FA
:102D5000079D2E466A411D1A15468D41D1D285B276
:102D60000E4CE562C31A04910D4695419A0BAB04D3
:102D7000D218AB0BD21EB341039AA6D33246A4E7B6
:102D8000A068401CA060019800F01AFA09B0F0BDDC
:102D9000014801F01BFAC046805800080C40014071
:102DA000D0B502AF05480069C20305490968514022
:102DB0008BB2440C0021D0186141D0BD38000020F6
:102DC0002440014080B500AF82B003460092034822
:102DD0001A460B46FFF754FF02B080BD38000020B2
:102DE00080B500AF00780C2813D2142148430C4A58
:102DF00010180269082A07D25143C0684018816838
:102E000001220A43826080BD06481C21064A01F067
:102E100087FA0C21014A01F06FFAC0468C5900086C
:102E20009C5800089C590008B8590008F0B503AF39
:102E300085B00393BFF35F8F00780B287BD81424F1
:102E400025464543424B5E19B368102B69D2029464
:102E50000092FC689A00C9B2404BD150D15801256C
:102E60006D020D43D5500194611E3D4A914266D2D8
:102E700031690829029C59D2BB69BA68F6680C25E9
:102E800045433B484019BFF35F8F002585608800AC
:102E90000E25854075604C433019039901614261EC
:102EA0000199C160D9B2032936D07A69D2B2032A16
:102EB00032D0FB693C69920209021143E2B29200EE
:102EC00001A4A258009C9746E52E0008D92E0008C0
:102ED000DD2E0008E12E0008402202E0802200E002
:102EE000C0221143E2B2012A01D0182200E00822D8
:102EF000DC0BF625254015439A09FC2414402C438D
:102F00005A07120E22431B0E1B03D218194B1940ED
:102F10001143816005B0F0BD17480F21174A01F039
:102F2000FFF90C481D210C4A01F0FAF90E481C214A
:102F30000E4A01F0F5F90C21044A01F0DDF904A86C
:102F40000849018000F076FA00F0ECFA8C5900088C
:102F50009C580008D8550008F855000800080240A1
:102F6000FFFF0000210000009C590008B85900082C
:102F700010020020C0CF030040580008505800083D
:102F8000F0B503AF8DB0054600F00DF900902A486A
:102F90000178012949D02E46303601240470274893
:102FA0000168062291437278930052001A43D2B20C
:102FB000891801602248FFF7CFFD2248FFF7CCFDBA
:102FC0002148FFF7C9FD21480168214301600168DC
:102FD00002220A430260016804220A430260016877
:102FE00008220A430260016810220A430260016855
:102FF0002024214301603078FEF714FF1448046058
:10300000402101608021016001A801465CCD5CC1C6
:103010005CCD5CC15CCD5CC1FEF7CCFFFFF772FC00
:10302000009800F0CDF80DB0F0BD01A8094901806D
:1030300000F000FA00F076FAD801002004580140B0
:10304000655800086A580008605800084C10024093
:1030500000E100E02000000080B500AF82B0FFF783
:103060009FFE074A002301F0C3F94A0A0192C905ED
:10307000400A40180090684600F03EFA02B080BD59
:10308000093D0000F0B503AF83B0029316460190EE
:10309000BD68284600F06CF904468068002808D016
:1030A00003CC083C801B029881411CD2002003B055
:1030B000F0BD2660029860600199086802900C607B
:1030C000296868680968884705460E46A068002890
:1030D00002D0C168E0688847A560E6600298206178
:1030E000012003B0F0BD26606060012003B0F0BD98
:1030F000F0B503AF87B00593049203460020029019
:10310000C5431E68002E43D0069501952946029DB1
:1031100007E0069401463069186035611E68002E8C
:1031200033D034687068049A121B059A824111D218
:1031300003932346019D6B4002466A401A43069D55
:10314000631B03468B4112D213D2002A029D039BBC
:1031500014D1DEE7B268B560002ADCD0F0685268AE
:103160000C461D4690472B46029D2146D3E7084654
:10317000EBD32C46002A029D039BCAD0103606943E
:10318000014633461E68002ECBD1069807B0F0BD2D
:1031900006952946069807B0F0BD80B500AFFEE75A
:1031A00080B500AF80BDD0B502AF00F017F804467F
:1031B000012004406042444100F009F82046D0BD9F
:1031C00080B500AF002801D000F003F880BD72B6D2
:1031D000704762B67047BFF34F8F7047EFF31080B0
:1031E000704700DEFEDEF0B503AF81B00546FFF7A5
:1031F000DAFF06462C6800202860002C0DD00096CF
:103200006E68A1683046884768686E60009E2968CD
:103210002C60002901D0C96888473046FFF7D0FFED
:1032200001B0F0BDF0B503AF83B0064630C9FFF77B
:10323000BAFF2A4602903568002030607068002D81
:1032400009D0A54207D1904205D135600298FFF719
:10325000B7FF03B0F0BD019021681046884732687F
:10326000306070687160002A01D0D1688847002DF5
:10327000ECD0E968019888470298FFF7A1FF03B0F6
:10328000F0BDB0B502AF0C4605460862FFF78BFFF4
:103290002968E1612C60002902D0FFF791FFB0BDE1
:1032A00040BFFFF78DFFB0BD80B500AF80BDD0B58A
:1032B00002AF0446FFF777FFA16902220A43A26129
:1032C000890705D4216A0A68E2610C60002A02D0ED
:1032D000FFF776FFD0BD40BFFFF772FFD0BDD4D45B
:1032E00080B500AF0146014880BDC046C8590008FE
:1032F000F0B503AF81B00546FFF755FF2C680026F7
:103300002E60FFF75DFF002C0FD0E569E661FFF747
:103310004AFFA16902229143A161FFF751FF616A4F
:1033200020468847002D2C46EFD101B0F0BDD4D403
:1033300080B500AF03C9CB6801496822984780BDBA
:10334000D859000880B500AF82B00168064A9142A2
:1033500002D1406802B080BD01A80449018000F09C
:1033600069F800F0DFF8C046C859000826000000E0
:1033700080B500AFFFF7E6FF80BD80B500AF026803
:103380004068C3681046984780BDF0B503AF81B070
:1033900000200090802903D268460170012128E0B6
:1033A0003F22084610407F23DC4300198D09CB0AD9
:1033B00006D169464870C02005430D70022118E00F
:1033C0000B0B15402D190E0C07D1694688704D70F6
:1033D000E02003430B7003210BE00F26F643890C1A
:1033E000314313401A196B46D8709D705A7019708A
:1033F00004216846FEF7CDF8002001B0F0BDD4D41A
:1034000080B500AF13460A46014900F0B9F980BD06
:10341000405A0008D0B502AF82B00446FEF774F8F7
:10342000218801A801800221FEF7B3F8FFF714FEFE
:1034300002B0D0BDD0B502AF82B00446FEF764F84A
:10344000218801A801800221FEF7A3F8FFF704FEFE
:10345000FEF79AF802B0D0BDB0B502AF82B00C460C
:103460000546019101A80421FEF793F8284621465C
:10347000FEF78FF802B0B0BD80B500AF82B0018812
:1034800001A801800221FEF784F802B080BDD4D4E7
:1034900080B500AF86B0029101900848049001A861
:1034A000039005A80649074A03AB00F069F90648EE
:1034B0000121FEF76EF806B080BDC0467B330008E0
:1034C000405A0008844C0008585A000880B500AFE4
:1034D00082B0017801A801700121FEF75AF802B00C
:1034E00080BD80B500AF82B00068019001A80421C2
:1034F000FEF74FF802B080BD80B500AF82B0016822
:1035000040680190009168460821FEF742F802B039
:1035100080BD80B500AF08461146FEF73AF800209E
:1035200080BDD4D480B500AF02480E21024A00F01D
:10353000F7FEC046595A0008685A000880B500AF27
:1035400080BDD4D4F0B503AF81B0009316460446D5
:103550000025FFF725FC8019009A51412A466A414F
:10356000012A03D0257203C401B0F0BD024828210E
:10357000024A00F077FEC046785A0008A05A0008B8
:10358000B0B502AF0D460446007A00280AD0FFF716
:1035900007FC02460B4603CC083C121A8B4103D3AE
:1035A0000020B0BD03CC083C2A68FFF70BFC0120CB
:1035B0002072B0BD80B500AF02684068C368104695
:1035C000984780BD80B500AF0B4606C8184600F08E
:1035D000D5FA80BDF0B503AF8BB016460291034615
:1035E000C1087D290190114651D30896721E00240E
:1035F000524E02980990019D07922846314601F0EB
:103600000CF90694079B19190A91CA1E08998A4257
:1036100000D383E01946049046430395AA1B93B256
:103620009B08474843435C0C6600474DA85D0590E6
:1036300009984318D81E059901700A98801E0899A8
:10364000884265D2A8199E1E407830700A98401EA4
:10365000884257D264206043101A80B24200A85CAE
:103660005B1E18700A98884245D2A8184078079ABD
:1036700009998854091F0991069C241F334803990E
:103680008142049B1D462D4EB7D8089E3119092B47
:103690001CD90A91891EB14247D29AB29208284C8D
:1036A0005443620C64245443181B80B24400264BDC
:1036B000185D029D68540A98401EB0423AD21B1908
:1036C0005B782B540198002805D109E01A46029D29
:1036D0000198002804D0002A02D108460BB0F0BDA2
:1036E000491EB14221D25000174A10184078685440
:1036F00008460BB0F0BD069808990818401E114AFC
:1037000000F0FAFD06980818801E0E4A00F0F4FD3D
:1037100006980818C01E0B4A00F0EEFD069808999E
:103720000818001F074A00F0E7FD064A0846314620
:1037300000F0E2FD034A314600F0DEFD10270000F4
:103740007B140000785B0008B05A00087F96980050
:10375000F0B503AF85B00C46006802AD0A262946D5
:103760003246FFF737FF311A2818009001910121E6
:10377000002320460A4600F0C9F805B0F0BDD4D4B5
:10378000F0B503AF8BB01646DA0700D090E0029197
:10379000069003933478002C00D18FE00298C06823
:1037A0000590002004900120019003E03478002C63
:1037B00000D183E0751C60B2002808D40698294621
:1037C0002246059B984700287BD12E19EEE7802CD6
:1037D00017D0C02C1BD100200A903B4809900298BA
:1037E000089006980790049CE100039A50585118DD
:1037F0004A6807A99047002863D1641C04942E46A8
:10380000D4E72878697809020C18F51CD6E7E00798
:103810000BD12D480022A10715D529786B781B0202
:103820005B18AD1C610711D415E02878697809028E
:103830000818A9780904EA781206511808182D1DED
:103840000022A107E9D41346610704D529786A78D4
:1038500012025218AD1C210703D42E46E10608D4EB
:103860000BE029786E78360271180491AE1CE106DF
:1038700003D5D900039B59188B88A10601D4039C5A
:1038800003E0D100039C61188A8807A9CA818B8153
:1038900009900298089006980790049DEA00A058A5
:1038A000A2185268904700280BD16D1C04957DE743
:1038B000CC685A083146A0470BB0F0BD00200BB0D1
:1038C000F0BD01980BB0F0BD20000060F0B503AF73
:1038D00081B01C460D46112109048A420AD02B6989
:1038E00006461146984701463046002902D001207D
:1038F00001B0F0BD002C05D0BA68EB6821469847AE
:1039000001B0F0BD002001B0F0BDD4D4F0B503AFDC
:103910008BB007930A920546FC68002906D09448AC
:10392000401CAE68304038D02B2238E0AE68631CB3
:103930002D223002099637D507991029069236D2E2
:1039400000293AD0059308950494032308461840AB
:103950000390042900D38DE000221046039E002E20
:10396000049C089D059B29D00A998B564021C94388
:103970008B4200DD401C012E0DD00A9B9A180123BA
:10398000D3568B4200DD401C022E04D00223D256B7
:103990008A4200DD401C059B10E011210A04400D05
:1039A000031930020996C7D400200A9008E00A984B
:1039B0001E4600F0DFF9334600E00020C318069AE7
:1039C000B8680590AE89B34216D204940999C8012B
:1039D00026D406922A46664808400890F31A480002
:1039E000800F00252C46C04678440079400087446B
:1039F0007D017B011C4679E0264630CD079800907A
:103A0000204629460A9BFFF761FF00287DD1EB681D
:103A10002046059932469847014608460BB0F0BD4E
:103A20001C46A96853480391084053494018A860B0
:103A3000E8680290296808956D68079800900991D8
:103A4000084629460A9BFFF741FF01210028E4D1DF
:103A50000A91301B002684B2B0B2A04233D22A6948
:103A6000302109989047761C0028F5D00A9908461D
:103A70000BB0F0BD0C250D400022104603E0121DD6
:103A8000954200D16AE70A998E564021C9438E4279
:103A900000DD401C0A9CA618012434578C4207DC28
:103AA000022434578C4208DCF4568C42E7DD08E0EF
:103AB000401C022434578C42F6DD401CF4568C42E4
:103AC000DDDD401CDBE7EB6809980599049A98470F
:103AD00000280A99A1D10898039981600299C160D0
:103AE000002108460BB0F0BD98B24408039310685B
:103AF00009905668A0B2A9B281420AD232690998E7
:103B0000089990476D1C0028F4D0012108460BB09D
:103B1000F0BD07980090099D28463146069A0A9BF9
:103B2000FFF7D4FE0121002800D076E7F36828468D
:103B30000D460599049A98472946002800D06CE75D
:103B40000398001B002480B20A900794A0B20121C0
:103B50000A9A904200D30799099800D35DE7326929
:103B60000D46089990472946641C0028EED054E77A
:103B7000FFFF1F000000E09F30000020F0B503AF02
:103B800087B00E4603908368D900880F2DD0002996
:103B900002962CD4102A06924DD2002A00D1AAE017
:103BA00005930321104608400490042A00D3B3E093
:103BB00000231946049800284FD0F0564022D243E3
:103BC000904200DD491C0498012846D0F3180120DA
:103BD0001856904200DD491C049802283DD002206E
:103BE0001856904239DD491C37E0069288E005936B
:103BF0000398C18900292AD0B218002006903546C2
:103C00000B4606E0651C281B069C041906945B1EE7
:103C100021D095421ED02C460026AD57002DF1D55F
:103C2000EDB2E02D03D3F02D03D3251DEBE7A51C4A
:103C3000E9E7E51CE7E7304611461C4600F09AF834
:103C40002346014603988289914259D20AE0002610
:103C5000069600E01E46891B029E059B03988289FA
:103C600091424DD2424818400490521A5800810F98
:103C7000002425467944097949008F44050103054C
:103C8000154601E090B2450801920398016805913C
:103C9000466801200390A8B2A1B281420AD23269DB
:103CA000059804999047641C0028F4D003990846AD
:103CB00007B0F0BDF36805980299069A9847002866
:103CC000039915D10198401B002480B206900394FB
:103CD000A0B20121069A904200D3039908D232691A
:103CE00005980D46049990472946641C0028EFD09A
:103CF000084607B0F0BD0021039882899142B1D3F4
:103D0000039801684068C36808463146069A984798
:103D10000146084607B0F0BD0C460C2010400023B9
:103D20001946224603E01B1D984200D142E7F55692
:103D30004024E443A54200DD491CF5180126AE5796
:103D4000A64208DC0226AE57A64209DC029EAD560A
:103D5000A542E8DD09E0491C0226AE57A642F5DD82
:103D6000491C029EAD56A542DDDD491CDBE7C0467D
:103D7000FFFF1F00F0B503AF88B00246C31C03204D
:103D800083439C1AA1421ED2002900D1A8E10B4610
:103D900003400693042900D3A5E100240794069864
:103DA0000028079800D199E113574021C9438B425D
:103DB00002DD0798401C07900698012800D0E4E136
:103DC000079808B0F0BD0D1B0594AC080694DBD035
:103DD0000495294601400791002593422C4621D0A5
:103DE000D31AC1438B42039500D8AAE100210C46A7
:103DF00055564023DB439D4200DD641C039D059E18
:103E0000012E0FD02E46511801254D579D4200DD41
:103E1000641C059D022D04D002254957994200DDFE
:103E2000641C354605995318079900291CD0E349AD
:103E3000049A0A401E46991800254B574022D24347
:103E4000934200DD0125079B012B0CD00123CB56AB
:103E5000934200DD6D1C079B022B04D00223C95640
:103E6000914200DD6D1C334602902819D64D069E06
:103E700014E00023039C069E361B059A51180791F7
:103E8000190AD04A13401140C918079BCC4A514324
:103E9000090C08180499002900D0F5E0002E00D183
:103EA0001CE11C46C02E334600D3C0231946029A9B
:103EB0001140049103939900042E06960594D8D3DB
:103EC0000790019110390B09581C3029009002D23B
:103ED0000023264676E00146914300232646726879
:103EE0009409D243D20922432A403468A009E4430A
:103EF000E40904432C40E0181018B2689309D24337
:103F0000D2091A432A401018F2689309D243D20901
:103F10001A432A40101832699309D243D2091A432E
:103F20002A40101872699309D243D2091A432A40D1
:103F30001018B2699309D243D2091A432A401018C3
:103F4000F2699309D243D2091A432A401018326AFF
:103F50009309D243D2091A432A401018726A93096E
:103F6000D243D2091A432A401018B26A9309D243A5
:103F7000D2091A432A401018F26A9309D243D2098F
:103F80001A432A401018326B9309D243D2091A43BC
:103F90002A401018726B9309D243D2091A432A405F
:103FA0001018B26B9309D243D2091A432A40101851
:103FB000F26B9309D243D2091A432A4013184036B0
:103FC000091F8CD10298009C04400798019900D1E8
:103FD00050E770688109C043C00908432840316830
:103FE0008A09C943C90911432940C9184018B16851
:103FF0008A09C943C909114329400818F1688A0987
:10400000C943C909114329400B18012C39D07069E3
:104010008109C043C0090843284031698A09C9435E
:10402000C90911432940C9184018B1698A09C9430F
:10403000C909114329400818F1698A09C943C90906
:10404000114329400B18022C1BD0706A8109C04310
:10405000C00908432840316A8A09C943C909114384
:104060002940C9184018B16A8A09C943C9091143CE
:1040700029400818F16A8A09C943C909114329402E
:104080000B1807980199F5E60790FC200440A20060
:10409000059EB0588309C043C1091943049B2940B8
:1040A000012B11D0B21850681E468309C043C009C5
:1040B000184328404118022E06D090688209C04358
:1040C000C009104328404118080A3E4A11401040D8
:1040D00040183B494143090C0798081808B0F0BD47
:1040E000002008B0F0BD81430024079403E0241DA4
:1040F000A14200D153E616574025ED43AE4202DD02
:10410000079B5B1C079316190123F356AB4207DC90
:104110000223F356AB420ADC3356AB42E7DD0CE038
:10412000079B5B1C07930223F356AB42F4DD079B0E
:104130005B1C07933356AB42D9DD079B5B1C07938F
:10414000D5E700210C4602E0091D00D150E6555686
:104150004023DB439D4200DD641C55180126AE5709
:104160009E4207DC0226AE579E4208DC2D569D4239
:10417000EADD08E0641C0226AE579E42F6DD641CB0
:104180002D569D42E0DD641CDEE712190123D35653
:104190008B4202DD0798401C07900698022802D146
:1041A000079808B0F0BD0223D2568A4202DC079875
:1041B00008B0F0BD0798401C08B0F0BDFCFFFF7FC1
:1041C00001000100FF00FF000101010180B500AF07
:1041D00084B002460348029003A80190024801A956
:1041E00000F0A4F849430008844C000880B500AFF3
:1041F00086B090420DD9009001921648059001A911
:104200000491039068460290154802A91A4600F0EE
:104210008DF891420FD888420DD9009001910D4838
:10422000059001A904910390684602900B4802A9E9
:104230001A4600F07BF8009101920648059001A90A
:104240000491039068460290034802A91A4600F0C0
:104250006DF8C046513700084D500008864C0008E4
:104260008450000880B500AF84B0019100900448EC
:10427000039068460290034802A900F057F8C04630
:10428000C5350008844C000880B500AF02460248DE
:104290002B2100F045F8C046885B000880B500AFD0
:1042A00088B001910090039302920648079002A8FB
:1042B00006900548059068460490044804A9BA6829
:1042C00000F034F8B5350008C5350008414A00084B
:1042D00080B500AF02460248332100F027F8C046FF
:1042E000B35B000880B500AF02460248472100F0EA
:1042F0001DF8C046CC5B0008FEB506AF01910090EA
:104300000548059069460491039001A8029003486E
:1043100002A900F00BF8C04651370008DC4D000838
:1043200080B500AF4900491C00F000F880B500AF2F
:1043300086B00291019003A801210181049201A994
:104340000391FCF71BFFD4D480B500AF08460249A7
:104350001822FFF713FC80BDEF5B0008F0B503AF38
:104360008BB0054650C9F3681C490C2220460293C5
:104370009847012100281BD1019100956868416888
:1043800004910168039116490A9102460C32099280
:104390000891083007901348069003A80590124A28
:1043A00005AB20463146FFF7EBF9002803D0019911
:1043B00008460BB0F0BD0D4902222046029B9847EB
:1043C00000280199F4D1009800680CC820463146B5
:1043D000FFF7D6F9014608460BB0F0BD075C0008B0
:1043E00051370008C535000896520008135C0008D4
:1043F000F0B503AF84B00393144602910190050C0D
:1044000092B200922946514382B2230C16465E4373
:104410000020711840410E0C0004861908045D4309
:1044200000994A4310187541029A62430399019B0F
:1044300059438918691804B0F0BDF0B503AF83B0D3
:104440000246884203D20020114603B0F0BD100C92
:10445000002610238142344630D90294144631D9C3
:10446000230A0820994232D9334600D803460193E3
:104470002309042099422ED933462FD9A0080225BA
:10448000814230D9304600D828460093640801257F
:10449000A1422C4600D93446029E019B9E19009BE6
:1044A000F318181803199D400C469C40161B8E42A9
:1044B0001DD232462846114603B0F0BD1C46029478
:1044C0001446CDD80446230A08209942CCD81C466D
:1044D0003346CBD9CBE71C463346CFD80346A0089A
:1044E00002258142CED804463046CDD9CDE7002CF6
:1044F00003D429462846324614E05B1E1F2200934F
:104500001A40012090406408321BD3170193029097
:10451000019B9843002A00DA324628438A420299D6
:10452000009B91D3491E002B0BD003261E400AD0BE
:1045300055002A1B521C00D41546012E06D15A1EC6
:1045400013E0154613E015461A460EE06D002A1BCF
:10455000521C00D41546022E01D19A1E05E06D00B2
:104560002A1B521C00D41546DA1E042B0AD21F2225
:1045700013402A46DA4029400843114603B0F0BDF3
:10458000121FF4D06D002E1B761C0CD56D002E1B57
:10459000761C0DD56D002E1B761C0ED56D002E1BC6
:1045A000761CEDD40EE035466D002E1B761CF1D442
:1045B00035466D002E1B761CF0D435466D002E1B43
:1045C000761CDDD43546DBE7F0B503AF8FB0102A9B
:1045D00015D30B924242032308931A4085180A9080
:1045E000A8422AD2541E002A0A9806460B4616D024
:1045F0000B780370012A07D14B1C461C0FE00346C1
:104600009C18A34241D362E04B784370022A02D146
:104610008B1C861C03E08B788370CB1CC61C032C80
:104620000BD31C7834705C7874709C78B470DC7830
:10463000F4701B1D361DAE42F3D10B98801A0B90FF
:10464000089CA0432B188E1809962640079047D146
:104650009D420B9A099E11D23146086801C59D42C0
:104660000CD2486801C59D4208D2886801C59D42A8
:1046700004D2C86801C510319D42EED3224007988C
:1046800031180A989C18A34221D203251540521EC6
:10469000002D0ED00E781E70012D04D1491C5B1C1C
:1046A000032A08D213E04E785E70022D11D1891CC6
:1046B0009B1C032A0BD30A781A704A785A708A789E
:1046C0009A70CA78DA70091D1B1DA342F3D10FB08E
:1046D000F0BD8D789D70C91CDB1C032AEBD2F6E778
:1046E000002406940E940EACA41905940424A41B73
:1046F0000494E407009606D0099C2478059E347043
:10470000009E01240694049CA40708D5099C0492E9
:10471000069AA45A059E069AB452049A009EF40082
:1047200003940E9C06942C1D9C4236D274420919A7
:104730000591039D694218240C4002940A99049142
:104740002946069CCC400694059989180191496830
:104750000C46029DAC40069D2C43049DAC50AD1808
:104760002C4608349C421CD2039CE140019CA46866
:1047700006940195029DAC400C4301994C6004994C
:10478000083104918D18291D059C0834059499421F
:104790000399D6D30598801801E00998801B0590ED
:1047A00004E00198001D05902D1D06910DA8002123
:1047B000049001700CA80170012E0E460C46029167
:1047C0000B9A09D0059C607926790DAC26700402FD
:1047D000022002900CA804900998C0070AD00598FE
:1047E000001D0299405C049908700DA806780CA879
:1047F0000078010405960398404204901826049816
:1048000006400C4305990C43B44006990398C140F7
:1048100021432960089C099E30E780B500AFFFF76F
:104820000CFE80BD80B500AFFFF7CEFE80BDF0B5B9
:1048300003AF102932D34442032214400319984293
:1048400018D2651E002C0BD000260670012C03D157
:10485000401C032D06D20DE04670022C42D1801C74
:10486000032D07D30025C570857045700570001DA8
:104870009842F8D1091B08469043181883420CD27D
:10488000002410C3834208D210C3834205D210C350
:10489000834202D210C38342F3D3114042189042A4
:1048A0001AD203230B40491E002B0BD000240470A6
:1048B000012B03D1401C032906D20DE04470022BCA
:1048C0000BD1801C032907D30021C1708170417076
:1048D0000170001D9042F8D1F0BD8470C01C032906
:1048E000F2D2F9E78670C01C032DBBD2C2E7B0B587
:1048F00002AF042913D30C1FE2431207920F14D006
:104900000025024620C223079B0F23460FD0456097
:104910000C222240042A05D10839083005E002465D
:104920000B460FE085600C390C300B4602460C2C10
:1049300008D30020106050609060D0601032103BAF
:10494000032BF7D8D01882421AD203241C40591ED8
:10495000002C0BD000231370012C03D1521C03290F
:1049600006D20DE05370022C0BD1921C032907D301
:104970000021D170917051701170121D8242F8D1D6
:10498000B0BD9370D21C0329F2D2F9E700B581B013
:104990006A4600F003F8009901B000BDD0B502AF3F
:1049A0001446FFF74AFD002C00D02160D0BD80B531
:0449B00000AFFEE76F
:1049B400433A5C55736572735C6D617274696E5CC5
:1049C4002E636172676F5C72656769737472795C78
:1049D4007372635C696E6465782E63726174657367
:1049E4002E696F2D31393439636638633662356226
:1049F400353537665C73746D33322D6D6574617053
:104A040061632D32312E302E305C7372635C6368C7
:104A14006970732F73746D33327530373363635C2D
:104A24002E2E5C2E2E5C7065726970686572616CE6
:104A3400735C657874695F75302E727300C0023AD6
:104A440020C0007372635C6D61696E2E72730043E3
:104A54003A5C55736572735C6D617274696E5C2E39
:104A6400636172676F5C72656769737472795C7392
:104A740072635C696E6465782E6372617465732E0B
:104A8400696F2D313934396366386336623562357E
:104A94003537665C656D62617373792D73746D333C
:104AA400322D302E362E305C7372635C7370695C09
:104AB4006D6F642E727300433A5C55736572735C58
:104AC4006D617274696E5C2E636172676F5C72658E
:104AD4006769737472795C7372635C696E64657818
:104AE4002E6372617465732E696F2D3139343963A5
:104AF40066386336623562353537665C6465666D83
:104B0400742D7274742D312E312E305C7372635C8B
:104B14006368616E6E656C2E727300433A5C557304
:104B24006572735C6D617274696E5C2E6361726729
:104B34006F5C72656769737472795C7372635C69C4
:104B44006E6465782E6372617465732E696F2D319E
:104B54003934396366386336623562353537665CB5
:104B6400656D62617373792D73746D33322D302EDC
:104B7400362E305C7372635C657874695C6D6F6447
:104B84002E727300433A5C55736572735C6D617287
:104B940074696E5C2E636172676F5C7265676973BA
:104BA4007472795C7372635C696E6465782E637287
:104BB400617465732E696F2D3139343963663863D6
:104BC40036623562353537665C656D62617373795B
:104BD4002D73746D33322D302E362E305C73726328
:104BE4005C646D615C646D615F62646D612E72739F
:104BF40000433A5C55736572735C6D617274696EDF
:104C04005C2E636172676F5C726567697374727935
:104C14005C7372635C696E6465782E63726174653B
:104C2400732E696F2D3139343963663863366235D2
:104C340062353537665C73746D33322D6D6574611E
:104C44007061632D32312E302E305C7372635C637D
:104C5400686970732F73746D3332753037336363DF
:104C64005C2E2E5C2E2E5C706572697068657261B4
:104C74006C735C646D616D75785F76312E72730050
:104C8400C00016736C69636520696E64657820736F
:104C9400746172747320617420C00D206275742075
:104CA400656E647320617420C000433A5C5573657B
:104CB40072735C6D617274696E5C2E636172676F8E
:104CC4005C72656769737472795C7372635C696E34
:104CD4006465782E6372617465732E696F2D313942
:104CE40034396366386336623562353537665C64F9
:104CF40065666D742D7274742D312E312E305C7393
:104D040072635C6C69622E727300433A5C5573651E
:104D140072735C6D617274696E5C2E636172676F2D
:104D24005C72656769737472795C7372635C696ED3
:104D34006465782E6372617465732E696F2D3139E1
:104D440034396366386336623562353537665C6597
:104D54006D62617373792D73746D33322D302E3619
:104D64002E305C7372635C7263635C6C2E727300CE
:104D7400433A5C55736572735C6D617274696E5C01
:104D84002E636172676F5C72656769737472795CB4
:104D94007372635C696E6465782E637261746573A3
:104DA4002E696F2D31393439636638633662356262
:104DB400353537665C656D62617373792D73746D17
:104DC40033322D302E362E305C7372635C646D6129
:104DD4005C6D6F642E72730020696E646578206F59
:104DE4007574206F6620626F756E64733A20746800
:104DF40065206C656E20697320C012206275742072
:104E040074686520696E64657820697320C0004306
:104E14003A5C55736572735C6D617274696E5C2E75
:104E2400636172676F5C72656769737472795C73CE
:104E340072635C696E6465782E6372617465732E47
:104E4400696F2D31393439636638633662356235BA
:104E54003537665C656D6265646465642D68616C94
:104E64002D6173796E632D312E302E305C73726335
:104E74005C7370692E727300433A5C557365727388
:104E84005C6D617274696E5C2E636172676F5C72D3
:104E9400656769737472795C7372635C696E646567
:104EA400782E6372617465732E696F2D31393439CC
:104EB4006366386336623562353537665C73746DA4
:104EC40033322D6D6574617061632D32312E302E55
:104ED400305C7372635C63686970732F73746D33D1
:104EE400327530373363635C2E2E5C2E2E5C706516
:104EF400726970686572616C735C62646D615F761F
:104F0400312E727300433A5C55736572735C6D6144
:104F14007274696E5C2E636172676F5C7265676937
:104F2400737472795C7372635C696E6465782E6302
:104F340072617465732E696F2D3139343963663843
:104F44006336623562353537665C656D62617373ED
:104F5400792D73746D33322D302E362E305C73728E
:104F6400635C74696D655F6472697665725C6770B1
:104F740031362E727300433A5C55736572735C6DFF
:104F8400617274696E5C2E636172676F5C726567CF
:104F940069737472795C7372635C696E6465782E8C
:104FA4006372617465732E696F2D313934396366A8
:104FB400386336623562353537665C656D626173B8
:104FC40073792D74696D652D302E342E305C7372B7
:104FD400635C74696D65722E727300433A5C557339
:104FE4006572735C6D617274696E5C2E6361726765
:104FF4006F5C72656769737472795C7372635C6900
:105004006E6465782E6372617465732E696F2D31D9
:105014003934396366386336623562353537665CF0
:10502400667574757265732D7574696C2D302E33C5
:105034002E33325C7372635C6675747572655C736F
:10504400656C6563742E7273001072616E676520FF
:10505400656E6420696E64657820C022206F757463
:10506400206F662072616E676520666F7220736CB4
:10507400696365206F66206C656E67746820C00084
:105084001272616E676520737461727420696E6454
:10509400657820C022206F7574206F662072616E5F
:1050A400676520666F7220736C696365206F662084
:1050B4006C656E67746820C000433A5C5573657212
:1050C400735C6D617274696E5C2E636172676F5C90
:1050D40072656769737472795C7372635C696E6418
:1050E40065782E6372617465732E696F2D3139345E
:1050F400396366386336623562353537665C656DAB
:1051040062617373792D73746D33322D302E362EA4
:10511400305C7372635C7263635C62642E727300EE
:105124002F72757374632F6534303839343762667F
:1051340064323030616634326462333232646166C0
:105144003066616466653765323664336264312F74
:105154006C6962726172792F636F72652F73726307
:105164002F666D742F6E756D2E727300433A5C5505
:10517400736572735C6D617274696E5C2E636172C7
:10518400676F5C72656769737472795C7372635C70
:10519400696E6465782E6372617465732E696F2D10
:1051A400313934396366386336623562353537668A
:1051B4005C6173796E632D627574746F6E2D302E1D
:1051C400322E305C7372635C6C69622E72730043BE
:1051D4003A5C55736572735C6D617274696E5C2EB2
:1051E400636172676F5C72656769737472795C730B
:1051F40072635C696E6465782E6372617465732E84
:10520400696F2D31393439636638633662356235F6
:105214003537665C656D62617373792D74696D658C
:105224002D302E342E305C7372635C696E7374613E
:105234006E742E727300433A5C55736572735C6DC1
:10524400617274696E5C2E636172676F5C7265670C
:1052540069737472795C7372635C696E6465782EC9
:105264006372617465732E696F2D313934396366E5
:10527400386336623562353537665C6465666D74ED
:105284002D312E302E315C7372635C6C69622E7228
:105294007300C0013AC0013AC00000001F4B00086F
:1052A400680000006C010000410000001F4B000872
:1052B400680000006701000042000000534A000833
:1052C40067000000D405000047000000705100088A
:1052D40062000000550000003C000000705100080E
:1052E40062000000B30000002400000070510008B8
:1052F40062000000AC0000002800000070510008AB
:1053040062000000A50000002A000000705100089F
:10531400620000004D0000003300000070510008DE
:1053240062000000B8000000240000007A4F00086A
:10533400640000001400000064000000744D0008C4
:10534400670000008C00000006000000534A0008BB
:1053540067000000C903000032000000534A00083F
:1053640067000000BD0300004D0000001F4B000853
:1053740068000000C90000002A0000001F4B00085C
:1053840068000000BE0000002B00000063616C6C2C
:1053940065642060526573756C743A3A756E777201
:1053A4006170282960206F6E20616E2060457272E2
:1053B400602076616C756500134E0008680000007B
:1053C400A20000004A00000063616E6E6F742070DA
:1053D4006F6C6C2053656C656374207477696365C6
:1053E400DF4F00086D0000006F0000002A0000007D
:1053F400696E7465726E616C206572726F723A20A8
:10540400656E746572656420756E7265616368614A
:10541400626C6520636F6465DF4F00086D000000F7
:105424006A000000190000000000000000000000F5
:105434000100000031330008474A00080B00000057
:10544400290000000100000000FF00FF9600FF009B
:1054540000000000474A00080B0000001A0000008A
:105464005A000000000000000400000004000000D6
:10547400D51100086465666D74206C6F676765728A
:105484002074616B656E207265656E7472616E74F2
:105494006C790000AE4C00085F000000960000002C
:1054A4000D0000006465666D742072656C6561733F
:1054B40065206F7574206F6620636F6E74657874F1
:1054C400AE4C00085F000000CB0000000D0000009F
:1054D400BB4A000863000000260000001F00000013
:1054E40070636C6B31000000E45400080500000098
:1054F400706C6C315F710000F45400080600000009
:1055040053504931045500080400000070636C6B6B
:10551400315F74696D000000105500080900000037
:1055240054494D31350000002455000805000000A1
:10553400BD50000866000000A50000003B0000000C
:105544001F4B0008680000004A000000090000002A
:10555400617373657274696F6E206661696C6564EA
:105564003A206E203C2033327573697A650000005E
:10557400B44900088C0000008A0000000D000000FF
:105584001F4B000868000000A30100000900000090
:10559400617373657274696F6E206661696C6564AA
:1055A4003A206E203C20347573697A65B44900084A
:1055B4008C0000003700000009000000010000001A
:1055C40000000000010000000000000001000000D5
:1055D40001000000617373657274696F6E20666107
:1055E400696C65643A206E203C2031367573697AA3
:1055F40065000000F54B00088E0000001900000053
:1056040009000000744D0008670000008C000000D1
:105614000600000001000000000802400000000035
:1056240000000240000000000100000000080240E9
:105634000100000000000240010000000100000021
:1056440000080240020000000000024002000000C6
:1056540001000000000802400300000000000240B6
:1056640003000000010000000008024004000000E4
:105674000000024004000000010000000008024095
:1056840005000000000002400500000001000000C9
:10569400000802400600000000000240060000006E
:1056A400010000000008024007000000000402405E
:1056B4000000000001000000000802400800000093
:1056C4000004024001000000010000000008024044
:1056D4000900000000040240020000000100000074
:1056E400000802400A000000000402400300000019
:1056F40001000000000802400B000000000402400A
:1057040004000000617373657274696F6E206661D2
:10571400696C65643A206E203C20387573697A653B
:105724007C4E00088C0000004800000009000000C6
:105734000E4D0008650000002B0100001C00000055
:105744000E4D0008650000002A0100001C00000046
:105754000E4D000865000000290100001C00000037
:105764000E4D0008650000002C010000210000001F
:10577400884B00086C000000930400002500000022
:10578400A0860100400D0300801A060000350C00BD
:1057940040420F0080841E0000093D0000127A0080
:1057A4000024F40000366E010048E801006CDC02BD
:1057B40001000000000000000000000000000000E4
:1057C40000000000000000000000000000000000D5
:1057D40002000000040000000800000010000000A7
:1057E40040000000800000000001000000020000F2
:1057F40001000000000000000000000000000000A4
:105804000200000004000000080000001000000076
:105814000E101610FF10101810FF0000094F00089A
:1058240070000000DA0000002A000000094F0008A0
:1058340070000000D80000002E0000006E6F74207D
:10584400696D706C656D656E74656400884B0008E5
:105854006C00000096010000290000000A081208EC
:10586400FF10001800FF0E1C161CFF00534A00080E
:1058740067000000B504000015000000094F00088F
:105884007000000066010000330000000030014099
:10589400100C180CFF00000001000000000802407A
:1058A40000000000000002400000000001000000B1
:1058B4000008024001000000000002400100000056
:1058C4000100000000080240020000000000024045
:1058D4000200000001000000000802400300000074
:1058E4000000024003000000010000000008024024
:1058F4000400000000000240040000000100000059
:1059040000080240050000000000024005000000FD
:1059140001000000000802400600000000000240F0
:10592400060000000100000000080240070000001B
:1059340000040240000000000100000000080240D2
:105944000800000000040240010000000100000003
:1059540000080240090000000004024002000000A8
:1059640001000000000802400A0000000004024098
:105974000300000001000000000802400B000000CA
:105984000004024004000000744D00086700000099
:105994008C00000006000000617373657274696F07
:1059A4006E206661696C65643A206E203C2038750F
:1059B40073697A657C4E00088C0000004800000082
:1059C40009000000E1320008AF320008AF320008DD
:1059D400A932000842757379202D20546F6F206D11
:1059E400616E7920696E7374616E636573206F668E
:1059F4002074686973207461736B2061726520611F
:105A04006C72656164792072756E6E696E672E20A2
:105A1400436865636B207468652060706F6F6C5FAA
:105A240073697A6560206174747269627574652043
:105A34006F6620746865207461736B2E000000002B
:105A44000000000001000000133500088B3300083B
:105A540001340008FF6578706C69636974207061B3
:105A64006E6963003A5200085B0000008101000087
:105A7400050000006F766572666C6F772077686545
:105A84006E20616464696E67206475726174696F05
:105A94006E20746F20696E7374616E74D351000844
:105AA400660000007C0000000E0000003030303141
:105AB40030323033303430353036303730383039B6
:105AC40031303131313231333134313531363137AE
