:020000040800F2
:1000000000A00020C1000008133300088B4A00083C
:1000100000000000000000000000000000000000E0
:100020000000000000000000000000001333000882
:100030000000000000000000133300081333000824
:100040001333000813330008133300081333000878
:1000500013330008133300081333000809010008A4
:10006000133300081333000813330008FD000008A1
:100070001333000813330008133300081333000848
:100080001333000813330008133300088D260008CB
:100090001333000813330008133300081333000828
:1000A0001333000813330008133300081333000818
:1000B0001333000813330008133300081333000808
:1000C00003F02AF9084809490022814201D004C0FE
:1000D000FBE707480749084A814202D008CA08C01E
:1000E000FAE701F05DF800DE5000002090020020E9
:1000F0000000002050000020F85C000880B500AF30
:10010000042002F02FFB80BD80B500AF02F02AFA78
:1001100080BDD4D4F0B503AF85B00446007B012682
:100120000028039609D0032845D1A07A00280AD0D8
:10013000032821D0214804F091F90291002025687C
:100140006560A06001E00291656800212846019188
:10015000324602F0E3F904AA5170304010702A7858
:100160000F23134012099202164D5259DA40D2075A
:1001700018D061722072029925460835284602F08F
:1001800069FA002805D0032103982173A17205B0F4
:10019000F0BD284602F03EFA002001212173A17231
:1001A00005B0F0BD04A802F035FA012101982173D1
:1001B000A17205B0F0BD024804F050F94C5400089B
:1001C0007C53000810000050F0B503AF83B0044624
:1001D000007B0125002809D003283AD1A07A002805
:1001E0000AD0032822D01C4804F038F901910020DD
:1001F00026686660A06001E0019166683046294685
:100200002A4602F08BF902AA517028401070327809
:100210000F23134012099202114E9259DA40D2076D
:1002200001D002A80CE061722072019926460836BE
:10023000304602F00FFA002801D0032004E03046D7
:1002400002F0E8F9012000252073A072284603B0CF
:10025000F0BD024804F002F95C5400088C53000819
:1002600010000050F0B503AFB3B00446A24812909E
:10027000139400200A90169012A81590149018AEAE
:100280001B360520049000070B902046283008906C
:10029000224640322046803011902046A0301090F7
:1002A0002046C0300C902046E0300D900F94603412
:1002B000607D0121069107940F9D109B0D9C4000CD
:1002C00078448088400087440500F104F1046A0105
:1002D00087019A00344618AE30461F300F2109922C
:1002E00004F061FB012318020393152160520020E2
:1002F0000E90E070A0700322110201920291080A90
:10030000607021700620B076812040003082052088
:100310000590307302203071E37431204001308346
:100320002272CE481D90304601F006FE25A8039C9F
:100330000481CB492691CB49259102F0B7FA0246B8
:100340002046059C214601F0D7F90E98019901F04D
:10035000CDF9024607200190214601F0CDF928A8E9
:1003600001F090F901F030F90646BE4902F05EFA5C
:100370000090BD4C201D01F0A3FA20684168BB4AE3
:100380000A40BB49511841602E656C650D9C039B6A
:100390001906B84A099EB261F161079A13721E46A6
:1003A0000199D1710E995171B34911600168B34A35
:1003B0000A400099C9B2C9005118029A89184531FA
:1003C000016028A805990170194601F063F90E999A
:1003D0002898F2032923DB00AB62109BE9622963B2
:1003E0006963AA63E963099A11735073A964117070
:1003F00007980675E966022900D8CCE3E4E02846B0
:1004000078300E9021460831207A002818D0032831
:1004100000D0B8E0099111980078400078448088B5
:10042000400087440A00B60043043D002F004C0002
:100430006E005B007B001F000F000E980068FCE060
:100440002068EEE011980830197B002976D0032946
:1004500000D09BE010990978002900D185E003299C
:1004600069D169E11198007A0A9E40007844808839
:1004700040008744040018041B043301250111982F
:10048000406816E111980830197B00295BD00329D8
:100490007CD11D46197800296AD003294BD1A5E3E8
:1004A0000C9C21461831207E002805914ED003284F
:1004B00072D1207C022861D025680F9EF8E20C9949
:1004C0000A461832087E0028059243D0032863D1DB
:1004D000087C022852D00D680F9E7DE11198007AA9
:1004E0004000C04678448088400087440700D90314
:1004F000DF035D025302C046A45A00081198406809
:1005000040E211980830197B002927D003293DD1FA
:10051000197800292ED003290DD109E2119808304D
:10052000197B00291DD0032930D11978002923D047
:10053000032900D168E2AF4803F090FF2C46996888
:100540001D460A9EE8E099681C463EE311988268C1
:10055000C3688DE211988268C3681DE199681D46E1
:10056000D4E199681D460A9C3DE22C460CC8D8E0AF
:100570000CC831E30CC8D1E10CC839E29E481821FF
:100580009E4A03F02BFF9E4803F068FF9D4803F04E
:1005900065FF9D4803F062FF9C4803F05FFF28461B
:1005A000783014A926461C4600F014FC002806D119
:1005B000234634460C98007A03281CD028E00321F7
:1005C000079A517533B0F0BD00200C99087148802E
:1005D000087228465030186126461C462846783056
:1005E00014A900F0F7FB00281ED10C98007A03280C
:1005F000234634460CD1187B032809D1187A0328E6
:1006000006D15879032803D12846A43002F052FAC3
:100610000020207208982060294678310E912146EA
:1006200008310991606004E00421079A517533B0E4
:10063000F0BD0021119A1170A867E8672421425C7F
:10064000014624315200C0467A44928852009744B1
:1006500017000202960095012B00C0460200080117
:1006600003000001C0C62D00FC580008FBE0FFFF9E
:10067000041700000301042501010700005CFFFFCF
:100680004A780F231340120992020B9C22431569EA
:10069000DD40012215406B426B41007E584000D185
:1006A000CEE20A700F9DC2E20021119A11725060D1
:1006B0000A9E017E119A16762530D06000290DD051
:1006C00028468C3014A9FFF725FD002800D0C6E28B
:1006D0001198007E2C4603280DD014E028468C305B
:1006E00014A9FFF771FD002800D0B6E22C4611983E
:1006F000007E032807D11198807D032803D120466E
:10070000943001F087FF0120119A1072109D2E7312
:10071000E16FA960104608300A6802604B684360C8
:100720002E7028A802F0CAFF2A982899299A119BAE
:1007300019615A61187625462846903014A902F0AE
:10074000DBFF03210122002800D11146109C2173F8
:10075000217000D07DE2E96F0846243042780F23F3
:100760001340120992020B9C22431269DA400123C2
:100770001340097E994200D159E2032156E2826872
:10078000119908618A60C368CB60002008750C99D4
:1007900008760846183005902846903028A903911D
:1007A00070C870C170C870C12EA802F087FF309861
:1007B00002902E9801902F9A109D08352B46039990
:1007C00051C951C351C951C30F9E0C980199816001
:1007D000C260029901740560C83628794000C0469D
:1007E000784480884000874413005B02610239002E
:1007F0001B00C046FC530008A8540008C054000861
:10080000EC530008BC530008AC5300080C5400081B
:100810002868017E00222A752530A86000291DD095
:100820002846083014A9FFF7CFFC042100280A9CB1
:100830001DD0297114A9304602F05EFF002800D0B7
:1008400022E20C9A107C022111740228069D00D12C
:1008500021E21099087B03281DD11EE028460830AC
:1008600014A9FFF757FC032100280A9CE1D1287D39
:10087000032806D1A87C032803D12846103001F0B4
:10088000C9FE02200C990874012028712546109990
:10089000087B032801D0042809D1087F032806D14A
:1008A000887E032803D10F98B83001F0B3FE0126EB
:1008B000059806700F9CE16F0020002D21D0086282
:1008C000E06F242103224254119806700E9800F024
:1008D00035FA099806700798007D01282546109B77
:1008E0000D9C00D070E6E86E401C032126461C4695
:1008F00004F0BAF823463446E966022900D963E6D3
:1009000049E1109D2873A960119808300A9C0A6873
:1009100002604B6843602C700F9D0D9C28A802F06C
:10092000CDFE2A982899299A119B19615A61187647
:100930002846903014A902F0DFFE0321012200288E
:1009400000D1114610980173017000D08DE1E86F5D
:100950002521415C0F220A40090989020B9B19439A
:100960000B69D34001210B405A425A41037E934206
:1009700000D15DE1026A521C026268E00021119A16
:1009800011725060017E0A9A119B1A762530D86048
:10099000002909D08C3514A92846FFF715FC00283A
:1009A000109D0AD0042052E18C3514A92846FFF787
:1009B000B1FB0028109D00D048E11198007E03286B
:1009C00007D11198807D032803D10F98943001F04E
:1009D00021FE0120119A10720A9C2C730F98C16F8E
:1009E000A960104608300A6802604B6843602C70AA
:1009F00028A802F063FE2A982899299A119B196168
:100A00005A6118760F9D0D9C2846903014A902F06B
:100A100073FE03210122002800D1114610980173B2
:100A2000017000D017E1E86F2521415C0F220A40D8
:100A3000090989020B9B19430B69D34001210B4023
:100A40005A425A41037E934200D1F1E00162E86FBD
:100A500024228154ECE00269119908618A6043699B
:100A6000CB60002008750C99087608461830059070
:100A70002846903028A9039170C870C170C870C111
:100A80002EA802F01BFE309802902E9801902F9A0B
:100A9000109D08352B46039951C951C351C951C303
:100AA0000F9E0C9C0198A060E26002982074256063
:100AB000C8362879784400794000874402F4F72248
:100AC0000A002868017E00222A752530A8600029C6
:100AD00017D02846083014A9FFF71CFB0421002872
:100AE00017D1287D032806D1A87C032803D12846E6
:100AF000103001F08FFD02202074012028710024A5
:100B000016E02846083014A9FFF75EFB03210028F1
:100B1000E7D0297114A9304602F0EEFD002800D07C
:100B2000A5E0207C022121740228069C00D1B2E0BD
:100B30001098007B032801D004280BD11098007F67
:100B4000032807D11098807E032803D10F98B8306E
:100B500001F060FD0126059806700F9DE96F0020E9
:100B6000002C2DD00862E86F2421042242541198F1
:100B700006700E9800F0E2F8099806700799087D53
:100B800046400E750028109B0D9C00D01CE5E96EB8
:100B9000022900D918E500201E460C9C2072284628
:100BA000503018610320484343490A189378237151
:100BB000085C517809020818608033460D9CEEE409
:100BC000109C2073A160119808300A6802604B687D
:100BD000436000202546207028A802F06FFD2A9867
:100BE0002899299A119B19615A6118760F989030AB
:100BF00014A902F081FD03210122002800D1114631
:100C00002973297020D10F9DE96F0846243042785E
:100C10000F231340120992020B9C22431269DA40FF
:100C200001231340097E994201D0022101700D9CDD
:100C30000120119908700E9800F080F86068F8E4BF
:100C4000032008700F9DF2E7042013E00320072122
:100C500007E00A200EE008200CE0032000E004205A
:100C60000921119A1170107206E0062002E003209B
:100C700005990870119908700499079A0320099B37
:100C80001870517533B0F0BD0320059908700499B0
:100C900011980170F1E709482821094A03F0FCFB8B
:100CA000044803F0DBFB024803F0D8FBFEDEC0463D
:100CB000DC530008CC53000828550008D054000825
:100CC000F854000880B500AF7521024A0023535440
:100CD000106780BD5000002080B500AF82B0044690
:100CE00002F01DFB104DAE69002E01D0314600E030
:100CF0000321A96102F020FB002E0DD10E4868628D
:100D00002046FFF7DFFF2046294602F076FB20460B
:100D100002F0AAFB20BFFAE70448009004482B2108
:100D200001AA044B03F076FB500000201855000880
:100D30006C5400080855000865020008D0B502AFE1
:100D4000017ACB1E062B3AD80146203102464232A8
:100D50007B441B795B009F4403320332153215003C
:100D6000937F002B1BD0032B29D1097D042901D0AF
:100D7000032924D19178032921D1117803291ED187
:100D8000302118E0027C032A01D0042A17D1097807
:100D9000032914D1817F032911D11C300DE0027F7A
:100DA000042A01D0032A0AD10A7B032A07D1897AAF
:100DB000032904D118211030401801F02BFCD0BDBC
:100DC00080B500AF82B000200090C043019068461B
:100DD000FFF782FFF0B503AF93B0054604462C340D
:100DE00006464D36F078012300280D940C960A93A0
:100DF000089120D0032800D0B1E1207A002800D14A
:100E0000F0E0032800D0ADE12079002800D18EE188
:100E1000032800D0A9E16078002800D18BE10328E5
:100E200000D0A5E1204601F0F1FE002800D135E117
:100E300003210A9889E1A86B28604A20285C307059
:100E400028464A30417871708078B0700EA8CE493B
:100E5000018002F09BFB0FA8CC49018002F0C8FB87
:100E600010A8CB4C048002F0C3FB304602F0EAFB32
:100E700011A8048002F0BCFB701C02F0E3FB12A876
:100E8000048002F0B5FBB01C02F0DCFB00F092FB2A
:100E900028463C3000210B908181E9632964079149
:100EA000696402203456E3077120C0437722D2439D
:100EB000002B034600D11346A60176B2F109602645
:100EC0003140C9180D9B19776107134600D50346B9
:100ED000210149B2C909314059180D9BD976E10663
:100EE000134600D50346A10049B2C909314059183B
:100EF0000D9B99761721CB43002C099300D4134600
:100F0000610049B2C909062406942140C9180D9B05
:100F100059760C99079BCC56E107034600D113463E
:100F2000A10149B2C9093140C9180D9B1976610761
:100F3000134600D50346210149B2C9093140591869
:100F40000D9BD975E106134600D50346A10049B2B1
:100F5000C909314059180D9B9975002C099B00D483
:100F60001346610049B2C909069C2140C9180D9B6E
:100F7000597501210C9B5C56E107034600D11346CD
:100F8000A10149B2C9093140C9180D9B1975610702
:100F9000134600D50346210149B2C9093140591809
:100FA0000D9BD974E106134600D50346A00040B25C
:100FB000C009304018180D998874002C00D409928B
:100FC000600040B2C00906990840099940180D9C7C
:100FD00060740E266D600B9AAA60EE60079820720E
:100FE000294601E02E1D46CE09682846103046C02D
:100FF00000202071A962EA612E620020607069629F
:10100000002E00D19EE048680068016840230993E3
:1010100099430A9B01606C6A217E48424841E17D08
:101020000729194665D001290B9266D0607A0028FD
:101030007AD00795E17A6068036800223546022677
:101040000B98009001950B960296039204925248D9
:10105000059026460A360C33304601F05FFF3046D5
:1010600001F036FFA07A0C2875D2079D696A49689D
:1010700009684A680B9B1A434A60696A49680968AB
:101080000A68099B1A430A600D9C20700C9E0899FF
:10109000204601F0BBFD002800D0C9E6204601F043
:1010A00009FD0320C202696A496809688B68134216
:1010B00012D08B6813420FD08B6813420CD08B6810
:1010C0001342F3D108E08A68120608D58A6812062E
:1010D00005D58A68120602D58A681206F3D40A6812
:1010E00040239A430A604A6882434A6000200121F3
:1010F0002BE0014601290B9298D1606801680A68CB
:10110000099B9A430A60012121760721E1751F217D
:101110000902006842688A43172109025118416098
:101120006C6A607A002884D11A4803F069F92E4667
:10113000103646CE5EE7EA692E6AA96A6962002E19
:1011400000D060E7002001210C9E217221716170A6
:10115000F17013B0F0BD0C21104A03F089F9094871
:1011600003F07CF9064803F079F9044803F076F9B6
:10117000014803F073F9C0463C5400089C53000832
:1011800098540008345500080D00000001000000CC
:10119000060000002C540008000001031C54000845
:1011A00080B500AFFFF70CFE80B500AF84B00446F9
:1011B00002F0C9F80C480178002912D10121017010
:1011C000019402A80949018002F0E0F903A8084946
:1011D000018002F00DFA01A8064902F015FA00F0AC
:1011E000E9F900F009F8C046400100200E000000B7
:1011F000030000004455000880B500AF02F0ADF8D0
:1012000080B500AF006803F065F980BDF0B503AFAD
:1012100087B0002900D196E0044646184D48C078B2
:1012200001960AE0012800D08FE0002049490871AA
:10123000C870641CB44200D185E02178C2B2072A8C
:1012400018D200294AD002A801704348C06A03217D
:1012500001400229414D00D0414D3F48183002A9BC
:101260000122A8470028F8D001286ED1394A117907
:10127000D0783AE0002951D005A801703648C06AFC
:101280000321009108400228344E00D0344E324DE4
:10129000183505A901222846B0470028F7D00128B3
:1012A00053D12C49C878401CC870C1B28629019E10
:1012B000BFD106A8FF2101702748C06A00990840E5
:1012C0000228264E00D0264E06A901222846B04705
:1012D0000028F9D0012838D1019EA6E701239340C8
:1012E0001C49097919431B4A1171401CD070C2B2C4
:1012F000072A9ED10A069CD003A801701648C06A2E
:10130000032101400229154D00D0154D1248183017
:1013100003A90122A8470028F8D083E7793080216B
:10132000014304A801700C48C06A0321014002294E
:101330000A4D00D00A4D0848183004A90122A847D8
:101340000028F8D06EE707B0F0BD0121054B0A4632
:1013500003F008F8410100200800002051140008A3
:10136000D9140008B0550008F0B503AF83B0314A76
:101370001078002858D0D078002832D0072810D212
:101380000021C9438140107908437F21014001A811
:101390000170294CE06A0321014002290ED0284D3A
:1013A0000DE079308021014368460170224CE06AEB
:1013B0000321014002290AD0214D09E01F4D1834B4
:1013C00001A901222046A8470028F9D007E01B4DBB
:1013D0001834694601222046A8470028F9D0012880
:1013E0001DD102A800260670134CE06A03210140BB
:1013F000022901D0124D00E0104D183402A901223B
:101400002046A8470028F9D0012808D109490E71C3
:10141000CE7048780E7001F08FFF03B0F0BD01214F
:10142000084B0A4602F09EFF07483921074A03F09D
:1014300039F8C0464101002008000020511400087E
:10144000D9140008B055000884550008A0550008BC
:10145000F0B503AF83B0029104460020002A11D0FA
:101460002569E368BFF35F8F0126B1029D4204D96D
:10147000DE43AD19002D0BD104E0002D04D0CD1AB0
:10148000002D05D103B0F0BDDD436D18002DF9D05E
:10149000954200D31546EE188E4201910DD9C81A17
:1014A00000906068C0180299009A03F077FA0098DB
:1014B000029909182A1A606803E06068C018029946
:1014C0002A4603F06BFA0198401E0640BFF35F8F77
:1014D000E660284603B0F0BDF0B503AF83B0164612
:1014E00001229402A64200D32646C3689D19BFF389
:1014F0005F8FA54202900ED9E21A01924268D0187D
:101500000091019A03F04AFA019800990918321AD9
:101510000298406802E04268D018324603F03EFA72
:10152000601E0540BFF35F8F0298C560304603B070
:10153000F0BDD4D4B0B502AF82B001F0F0FE1649D0
:101540000A78002A1DD101220A7048708878002884
:1015500015D18A7001A800210170124CE06A0321A4
:101560000140022901D0114D00E00F4D183401A9AE
:1015700001222046A8470028F9D0012806D102B050
:10158000B0BD06483D21064A02F08CFF0121084B00
:101590000A4602F0E7FEC04641010020545500080B
:1015A000745500080800002051140008D9140008E0
:1015B000B055000880B500AFFFF7D6FE80BD80B5FE
:1015C00000AFFFF723FE80BD80B500AF82B00A48B0
:1015D000C069002801D002B080BD01A80749018080
:1015E00001F0D4FF064801F0B9F9064801F0B6F958
:1015F000FFF7E0FF02F052F8480100201F00000052
:10160000E4550008C855000880B500AF82B0164800
:101610000068800112D41548006A002812D168467B
:101620001649018001F0B2FF124801F097F9144801
:1016300001F094F9FFF7BEFF02F030F80B48806A22
:10164000002801D002B080BD01A80949018001F045
:101650009DFF084801F082F9074801F07FF9FFF784
:10166000A9FF02F01BF8C046881002404801002084
:101670001E00000008560008D85500082000000091
:10168000F855000880B500AF01F049FE01F054FEA6
:1016900080BDD4D4F0B503AF81B00C46054601F04F
:1016A0003EFE00902A780F2313405D000321A940DD
:1016B000120992020B4E90598843E4B2AC400443A5
:1016C000945101209840084BD4588443D4500520AD
:1016D000000713588B431350009801F02DFE01B002
:1016E000F0BDC0460C0000500400005080B500AFB3
:1016F0000904081880BDD4D4F0B503AF83B00192BB
:10170000430804251D4005231A070292C4B2240988
:10171000A402A61872190092166A4307DD0E0F2361
:101720001A46AA4096431940A9403143009A1162D3
:101730001840420003259540009214496358AB437A
:1017400001998E05B60F96401E43104AA6500122FD
:101750000B461340834082400D48265896431E4353
:101760002650FF2000040840000C00998840094AD8
:10177000A358AB430343A350029BE058A843022263
:101780008A400243E25003B0F0BDC0460C00005056
:10179000040000500800005080B500AF82B000780F
:1017A000032804D9001FC0B2001D02B080BD01A8EB
:1017B0000249018001F0FAFE01F070FF22000000F2
:1017C000F0B503AF85B0044680788500194BE85822
:1017D000E1781F2201921140012632468A400243DD
:1017E000EA5002A81449018001F0D0FE03A8134971
:1017F000018001F0FDFEA01C01F024FF04A80F49A8
:10180000018001F0F5FEE01C01F01CFFFFF7D2FEA5
:10181000084968580D4601F09AFD2078FF2807D046
:10182000800029586278019B1A409640B1432950A4
:1018300005B0F0BD001002400900000006000000E5
:10184000B0B502AF86B004460079FF2822D1A07857
:10185000800018494258E3781F251D400123AB4002
:101860009A43425003A81449018001F08FFE04A856
:10187000124D058001F0BCFEA01C01F0E3FE05A89E
:10188000058001F0B5FEE01C01F0DCFEFFF792FEE2
:1018900006B0B0BD019002A80549018001F076FEB6
:1018A00001A801F087F8FFF785FE01F0F7FEC046BA
:1018B00011000000001002400800000006000000B7
:1018C000F0B503AF83B0054601F029FD2979FF2962
:1018D00015D1044628462978FF2909D089000F4AE6
:1018E0008B5845781F262E400125B5401D438D504D
:1018F000FFF766FF204601F01FFD03B0F0BD019128
:1019000002A80549018001F041FE01A801F052F84A
:10191000FFF750FE01F0C2FE100000000010024070
:10192000F0B503AFADB002468B4E3068C00715D19D
:10193000306868210143942081433160306801217F
:10194000014331603068800708D43068800705D4CF
:101950003068800702D430688007F3D5B06880060D
:10196000400F11D00020B060B0688006400F0BD04F
:10197000B0688006400F07D0B0688006400F03D0E3
:10198000B0688006400FEFD110460830119200F089
:1019900053FB119B05900C46587C0490986802906C
:1019A000187B0690987E0022102815460F921FD0B3
:1019B0003168F422914302010A4308211143316046
:1019C000316801220F92114331603168890708D4D0
:1019D0003168890705D43168890702D431688907DD
:1019E000F3D50C2800D34FE280005C4908580B90D7
:1019F0000194194620310120020212920891897B3C
:101A0000079101292946109513D13168129A114383
:101A1000316001210C46890232680A4208D13268DD
:101A20000A4205D132680A4202D132680A42F3D032
:101A300021461A79022A1CD00D4605210904D20735
:101A40000A4600D102041B680A9333688B43991835
:101A5000119B3160410432680A4208D132680A425F
:101A600005D132680A4202D132680A42F3D010909E
:101A70002946987F3A4A0E90022824D01068012403
:101A8000204310601068800708D41068800705D4D0
:101A90001068800702D410688007F3D50E98C0073D
:101AA00011D030480D46FFF70BFF119B03200007B4
:101AB0002D494A6882436007101848600868602210
:101AC00002430A6029460B9818900F9817900A98BD
:101AD000169010981590FA481490099113911C7D56
:101AE000042C16D10120010632688A433260400678
:101AF0003168014208D03168014205D031680142A5
:101B000002D031680142F3D100201D901B90199042
:101B10000DE01FAD681C19461531052202F03EFF8D
:101B20002C7019A813AA294600F0D0FB119B187F2E
:101B3000810001A251588F466D1B00089B1B0008B5
:101B40007D1B00088D1B0008A51E0008A51E0008AF
:101B5000971E0008971E00080010024064560008F7
:101B6000981002401F560008006C00400F99002991
:101B70000B990D9117D1D84802F042FC1099002919
:101B80000A990D910FD1D24802F03AFC1D99002913
:101B900000D15EE11E990D9105E009990029C8491F
:101BA0000D9100D158E1DA7ECC49D140C90700D16E
:101BB0005CE103929100CB4A5158CB4CCBA5002954
:101BC00005D04A420A406243D10E695C00E0202100
:101BD0005B7FF1220C93DA40D20700D14DE10D9BDF
:101BE000CB40CB490A68129D2A430A60C94A521C5D
:101BF0001293934205D30223C74A129D954205D3FF
:101C000005E00123C44A129D954200D200230C68CE
:101C100007229443E4180C600C9CA400BF4D2D597E
:101C20000C6814409C420BD00C6814409C4207D0B6
:101C30000C6814409C4203D00C6814409C42EFD1C5
:101C4000B168B74A0A401118039A120289180C9A0F
:101C500012038918B160B1688906490F81420ED01C
:101C6000B1688906490F814209D0B1688906490FD8
:101C7000814204D0B1688906490F8142EBD1002D21
:101C8000119B8D4A984906D0684228404143C80EAE
:101C900096A1085C00E0202012990C46C440091B64
:101CA000481E81410C910798002804D101200002B0
:101CB0003168814331600E9802280ED101F02FFB6C
:101CC00006467E48FFF7BCFD304601F035FB7A4AF8
:101CD000119B106801218843106003200002114607
:101CE000083916460A688243089D68780002801801
:101CF0000860103E30688B490140A8780007401802
:101D0000E9788906081829790903401869790904CE
:101D10004018A97989044018E97909054018297AF9
:101D200089050143687A80020843A97A09020143C0
:101D3000E87A8007000E0843D97F490601432878D6
:101D400000060843297B0143687B8007000F084396
:101D500030601298002800D181E01C98089019ADDD
:101D600026CD0020109B002B064602D00A9E002E96
:101D700075D0069B052B02D0029800286FD0002C4E
:101D80006DD01096119023460C98834067D00026A2
:101D90000029314602D0002A114660D0002D32467B
:101DA00002D0089A002A5AD02046059DED0702D09D
:101DB000019E002E53D00D9C002C049D4FD02B94DF
:101DC00028AC46C427932690119823901098209011
:101DD00012981F900F9800280B990DD02591002D77
:101DE00009990ED124950E98022810D03448494AFA
:101DF0002292002910D010E001462591002D09996A
:101E0000F0D07D20050224950E980228EED1002204
:101E10002B482292002900D1084621902CA8434942
:101E2000018001F0B3FB2CA84149018001F0E0FBE7
:101E30001FAC204600F0CEFDFFF7BCFB3D480ECCAA
:101E40000EC00ECC0EC00ECC0EC02ECC2EC02DB0AF
:101E5000F0BD1E4802F0D4FA1E4802F0D1FA1FA8C5
:101E60003149018001F0A2FB01F018FC1FA81C49B8
:101E7000018001F09BFB01F011FC1FA823490180A8
:101E800001F094FB01F00AFC1FA80A49018001F04F
:101E90008DFB01F003FC1FA80A49018001F086FBBD
:101EA00001F0FCFB1FA80849018001F07FFB01F055
:101EB000F5FBC04613000000981002401F560008B2
:101EC0000024F40012000000140000005456000822
:101ED00044560008345600082456000801FF00004C
:101EE000210000009456000831B57C0700011C0257
:101EF0001D0E18031E16140F191104081F1B0D17B1
:101F0000151310071A0C12060B050A09270000000A
:101F100000200240006CDC0201366E01D45600083D
:101F2000F880FFFF30C000C00F0000000C00000070
:101F30002D00000048010020F0B503AF8FB005462A
:101F400001F0EDF902903448017801295DD029466D
:101F500030310B4601910126067030480168062297
:101F600091435A78930052001A43D2B28918016003
:101F70002B4C20460C380168314301602948FFF79B
:101F80001FFC3007214614390A6802430A602648BC
:101F9000FFF716FC3002214624390A6802430A6022
:101FA0002248FFF70DFC20683043206020680221A2
:101FB0000143216020680421014321602068082139
:101FC0000143216020681021014321602068202600
:101FD000304320600198007800F060FB14480660F0
:101FE000402101608021016003A801465CCD5CC1F5
:101FF0005CCD5CC15CCD5CC1FFF792FC00F046FE9D
:10200000029801F099F90FB0F0BD03A809490180C9
:1020100001F0CCFA01F042FBFC0100200458014021
:102020004C100240155600081A56000810560008B9
:1020300000E100E028000000F0B503AF89B0047AA9
:10204000A20002A39A5821469746C046792000086C
:102050005D20000869200008792200080279052A1D
:1020600000D106E1016805E0427A002A00D10AE1C8
:102070007D22110201910121059401231C028C4D46
:102080002A6822432A6006792A68224208D12A68EF
:10209000224205D12A68224202D12A682242F3D084
:1020A0000291052E314600D1042104910696427A10
:1020B0008048002A0FD0416801220A4342604168EB
:1020C000890708D44168890705D44168890702D483
:1020D00041688907F3D50668324603931A40554292
:1020E000554106994C1F621E94416C40B205920FF7
:1020F000059B9A1A5542554159425941F20B4A40A3
:102100002A40224004233146009319404C424C415E
:10211000069B191F4D424D4165401540052B0ED0C1
:102120002A46049C042C039B12D0F106890F611AE5
:102130004C424C411440069E052E0DD120E08021DA
:1021400031404A424A412A40049C042C039BECD172
:102150001446069E052E13D0002C11D00168802253
:102160000A4302600121CD020168294208D10168B9
:10217000294205D10168294202D101682942F3D0E0
:10218000002C15D00068079008A84F49018001F085
:10219000FDF908A84B49018001F02AFA07A801F0CF
:1021A0005CFAFFF707FA019C0298214609B0F0BDDE
:1021B000190402680A43026002688A430260052E1D
:1021C000019C34D0042E06D01D46046804990429CD
:1021D00006D1224608E00525046804990429F8D0B0
:1021E0001D218C43F200224300998A432A43026056
:1021F000019C0168890708D40168890705D4016832
:10220000890702D401688907F3D5016880220A434F
:1022100002600121CA020168114208D1016811421D
:1022200005D10168114202D101681142F3D0059D28
:10223000002D09D0026891062CD4D9031F4B1A40F7
:102240002B02D2180A4302600068079008A81C49B4
:10225000018001F09BF908A81A49018001F0C8F932
:1022600007A801F0FAF9FFF7A5F90298214609B08D
:10227000F0BD0E4802F0C4F807A80A49018001F039
:1022800095F901F00BFA07A80749018001F08EF9D2
:1022900001F004FA07A80849018001F087F901F06C
:1022A000FDF9C04618000000160000002457000881
:1022B000007000409010024015000000DF7CFFFF1E
:1022C0000A000000050000000B000000F0B503AF9D
:1022D00091B00D9001252806854C23688343236027
:1022E00007956D062068284208D02068284205D04E
:1022F0002068284202D020682842F3D10E78042EAC
:1023000009D100260D9B1E601021082230469E50E8
:10231000585011B0F0BD48790C9008790B90CB78EB
:1023200088780A9048780990B00002A1085808936C
:1023300004968746BD240008452300085123000861
:102340005D2300081069002800D1BEE014200AE0D7
:102350001068002800D1BBE0042004E09068002849
:1023600000D1B8E00C20105806900EA80C9901700E
:10237000FFF712FA06460C98032800D882E0099865
:10238000411C069802F005FB4643069600260B9872
:10239000202832460AD0401EC1B21F29069878D2A2
:1023A000891C02F0F6FA0590079A0B9807920A9B8F
:1023B000082B32460BD0581EC0B2072870D2811CA1
:1023C000069802F0E6FA029001220A9B0B9803920B
:1023D000089908290BD0481EC0B2072867D2811C73
:1023E000069802F0D6FA019001260A9B0B980999EB
:1023F0000901049A8A180C99090211430122202824
:102400002DD11206082B32D1089B0598082B07D036
:102410000590404801405B07C91809180598491CF8
:102420000D9BE1602168114321602168294208D198
:102430002168294205D12168294202D12168294217
:10244000F3D0079919605860039898600298D86093
:102450001421102201989E50585011B0F0BD430431
:1024600059181304C9180A9B1206082BCCD0184619
:10247000274B19404306C9188918089B0598082B53
:10248000C6D1CDE70FA81E49018001F08FF801F0F9
:1024900005F90FA81B49018001F088F801F0FEF84A
:1024A0000FA81949018001F081F801F0F7F80FA891
:1024B0001649018001F07AF801F0F0F80FA81649EA
:1024C000018001F073F801F0E9F80FA80B4904E06E
:1024D0000FA8094901E00FA80649018001F056F84C
:1024E00010A800F04BFAFFF765F801F0D7F8C046E6
:1024F00000100240190000001A0000001B0000003C
:102500002300000024000000250000002600000039
:1025100077FFFF70FFFFFF0F17000000F0B503AF5C
:1025200083B002920C4606780F25354000F0F7FE86
:10253000019031092846224600F0C8F90124AC4038
:1025400000F0EDFE06490A6822430A6000F0F4FE3E
:10255000019800F0F1FE0298294603B0F0BDC04694
:1025600080180240F0B503AF81B01E4A1068516870
:10257000014389B2506F884350670091002925D0EC
:1025800019491AA2009E002E05D0704230404843DF
:10259000C00E145C00E020241D4D02E02024002E1B
:1025A00014D00F2C18D8E000281800F0D8FE012015
:1025B000A0408643F2D0002EF0D0704230400A494D
:1025C0004843C00E09A10C5C002EEAD105480099D1
:1025D0000160416001B0F0BD10210C4A204601F0BD
:1025E00047FFC0460C18024031B57C0700011C02B1
:1025F0001D0E18031E16140F191104081F1B0D17AA
:10260000151310071A0C12060B050A093457000897
:102610007C010020D0B502AF0446007800280CD021
:1026200000F07DFE08490A686378202B06D2012459
:102630009C40A2430A6000F07FFED0BD03481D21EC
:10264000034A01F029FFC0468018024044570008A1
:1026500064570008D0B502AF4478102C0BD2E000CC
:10266000084A1018096800F099FE07480168E1401F
:1026700001200840D0BD1021014A204601F0F8FE9B
:10268000745700087C0100208018024080B500AF1C
:10269000014800F049FB80BD38000020F0B503AFD1
:1026A00081B0FF210A022A490B689343C4B2220277
:1026B0009A180A60012255020092264B1D600D688F
:1026C000254E354024042D190D6095021D600E68BD
:1026D000214A164034190C601D600D681F4C2540BE
:1026E00000062D180D60009AD5021D600E68264068
:1026F00036180E601D600E68264036180E601D608C
:102700000E68264036180E601D600E68264036188A
:102710000E601D600E68264036180E601D600E6843
:10272000264036180E601D600E68264036180E6072
:102730001D600E682640301808601D60084801685A
:1027400011430160016802220A43026001B0F0BD3A
:1027500008E400E000E100E0FFFF00FFFFFFFF00F2
:1027600048100240F0B503AF83B0C0B20B283AD88E
:10277000142529464143294A5418E16826690091E5
:102780000968082E2AD2B3000A46DA4012072ED46E
:102790000C224243204884187543009E701904257A
:1027A0009D400D4202D08268520711D402259D40FF
:1027B0000D4211D0806880070ED5756000F0AFFD26
:1027C000A168BFF35F8F491CA16000F0B5FD00E078
:1027D0007560204600F0C3FD03B0F0BD10481C2119
:1027E000104A01F059FE0C210A4A01F041FE103452
:1027F0000098019002A80C49018000F0C7FE01A8D2
:1028000000F0C8F8204600F0D5F8FEF7D3FE00F03F
:1028100045FFC04684570008000200209457000876
:1028200084580008A05800081C000000B0B502AF92
:1028300082B000292BD00C46054602F0AAF8AC4223
:1028400028D8032802D2002002B0B0BD062802D248
:10285000012002B0B0BD0C2802D2022002B0B0BDEF
:10286000182802D2032002B0B0BD282802D20420CA
:1028700002B0B0BD602802D2052002B0B0BDC028B1
:1028800002D3072002B0B0BD062002B0B0BD06489A
:1028900001F0DAFD01A80349018000F087FE00F095
:1028A000FDFEC0461D000000B058000880B500AF16
:1028B00001218279002A04D1490200790004081814
:1028C00080BD090200790004081880BDF0B503AF8F
:1028D00083B002920E460446C5B200F020FD102DD2
:1028E0002CD20190A007C00EFF2181400C22224073
:1028F000174C1219136E8B43F1B2814019431166C4
:1029000002980006800D13490958A9400126AE40DF
:102910002268B2430A4322600F490858A840616800
:10292000B1430143616000F0FAFCE660266100F00B
:1029300003FD019800F000FD03B0F0BD02481C212A
:10294000024A01F0A9FDC046C0580008DC58000842
:10295000001802401459000808590008D0B502AF09
:1029600082B0044601A80449018000F041FE03CC76
:1029700000F02EFE02B0D0BD0400000080B500AF14
:1029800082B001A80249018000F032FE02B080BD91
:1029900002000000D0B502AF82B0044601A804498D
:1029A000018000F025FE204600F057FE02B0D0BDA9
:1029B00005000000D0B502AF82B0044601A804496A
:1029C000018000F015FE204600F047FE02B0D0BDA9
:1029D00007000000B0B502AF82B0044601A8344D34
:1029E000058000F005FE204600F037FE01A80580B6
:1029F00000F0FEFD201D00F030FE01A8058000F073
:102A0000F7FD2046083000F028FE01A8058000F000
:102A1000EFFD20460C3000F020FE01A8058000F0FC
:102A2000E7FD2046103000F018FE01A8058000F0F8
:102A3000DFFD2046143000F010FE01A8058000F0F4
:102A4000D7FD2046183000F008FE01A8058000F0F0
:102A5000CFFD20461C3000F000FE01A8058000F0EC
:102A6000C7FD2046203000F0F8FD01A8058000F0E9
:102A7000BFFD2046243000F0F0FD01A8058000F0E5
:102A8000B7FD2046283000F0E8FD01A8058000F0E1
:102A9000AFFD20462C3000F0E0FD01A8058000F0DD
:102AA000A7FD3034204600F0D8FD02B0B0BDC046CE
:102AB0002C000000B0B502AF00780C2800D396E0DF
:102AC00014210A4642434D4B9A181369082B00D330
:102AD00088E05943D26851180A228A600C22424386
:102AE000494880180830012201E0002B3CD08D6855
:102AF0008B680468BFF35F8FED0735D06542654191
:102B00009B06134600D42B46012B2DD18D688B6874
:102B10000468BFF35F8FED0726D0654265419B06D1
:102B2000134600D42B46012B1ED18D688B68046898
:102B3000BFF35F8FED0717D0654265419B061346D3
:102B400000D42B46012B0FD18D688B680468BFF32E
:102B50005F8FED0708D0654265419B061346C4D4DC
:102B60002B46C2E7002B3AD08D688B680468BFF310
:102B70005F8FED0733D0654265419B06134600D455
:102B80002B46012B2BD18D688B680468BFF35F8FB8
:102B9000ED0724D0654265419B06134600D42B46C1
:102BA000012B1CD18D688B680468BFF35F8FED0724
:102BB00015D0654265419B06134600D42B46012B78
:102BC0000DD18D688B680468BFF35F8FED0706D069
:102BD000654265419B061346C4D42B46C2E7BFF34A
:102BE0005F8FB0BD06481C21064A01F055FC0C2140
:102BF000014A01F03DFCC046385A00084859000817
:102C0000485A0008645A000800020020B0B502AF1C
:102C100004780B2C2AD80C206043184A1518096830
:102C2000284600F0BBFB14204443154909190A69E2
:102C3000082A16D25043C968081882688068A968B3
:102C4000D207BFF35F8F08D04A424A412021084093
:102C50004009104301D00120B0BDBFF35F8F0020B9
:102C6000B0BD08481C21084A01F016FC0C21024A9C
:102C7000204601F0FDFBC046EC5800080002002091
:102C800048590008485A0008645A0008D0B502AFF5
:102C900082B01E4C601C1E490A6802430A601D482F
:102CA000FEF78EFDFEF7B0FC1B490B680122934333
:102CB0000B6000234B62C00B401E0090030C19D127
:102CC0000885CC6208680423184308604A610868D4
:102CD00098430860D00348630320C860D0040F4BBA
:102CE000186018600E4B1860186008681043086080
:102CF00002B0D0BD01A80B49018000F047FC684636
:102D0000FFF748FEFEF756FC00F0C8FCFFFF00008E
:102D100040100240205900080040014080E200E0DD
:102D200000E100E02A000000F0B503AF8BB0039093
:102D300000F0F5FA009063494E6808680A90F04385
:102D40004860032080030290F00705D1B00720D42B
:102D50007007039E3BD4AAE0039C2069451C2561B3
:102D600000F0DDFA0990574800686A0CEB03002573
:102D700002995B18554122686168D21AA94101D2B3
:102D8000042108434F490860099800F0D5FAB007BC
:102D9000DED5039C2069451C256100F0C0FA09902E
:102DA000484800686A0CEB03002502995B185541FE
:102DB00022686168D21AA94101D20421084341491D
:102DC0000860099800F0B8FA7007039E6FD50420D8
:102DD00006900A9901406AD0B06800286FD100209F
:102DE0000990C0430490B06030460C30059001203B
:102DF0000190C0030890334C3069C1030A46089B18
:102E00001A40A3699DB25540430C4A1909984341A1
:102E1000059800F029FA0A9103C63268521C326004
:102E2000B268D1030D46089B1D40083E3346A66993
:102E3000B6B26E40520C8919099E724107900D1A64
:102E400015460A98854125D2079885B2E562431A4E
:102E50000A9D954102995A1AB541019A00D332460A
:102E6000531E9A419200236806998B4313432360B3
:102E7000039B1A69D1030D46089E3540A669B6B278
:102E80006E40520C8919099D6A410798081A0A98E0
:102E900082410CD320680699884320600499196008
:102EA00059609868002807D11E469960A4E70098E9
:102EB00000F042FA0BB0F0BD044801F043FA0248BA
:102EC00001F040FA0C400140385900082859000828
:102ED00080B500AF00780C2813D2142148430C4A67
:102EE00010180269082A07D25143C0684018816847
:102EF00001220A43826080BD06481C21064A01F077
:102F0000CBFA0C21014A01F0B3FAC046385A000846
:102F100048590008485A0008645A0008F0B503AF41
:102F200085B00393BFF35F8F00780B287BD8142400
:102F300025464543424B5E19B368102B69D2029473
:102F40000092FC689A00C9B2404BD150D15801257B
:102F50006D020D43D5500194611E3D4A914266D2E7
:102F600031690829029C59D2BB69BA68F6680C25F8
:102F700045433B484019BFF35F8F002585608800BB
:102F80000E25854075604C433019039901614261FB
:102F90000199C160D9B2032936D07A69D2B2032A25
:102FA00032D0FB693C69920209021143E2B29200FD
:102FB00001A4A258009C9746D52F0008C92F0008ED
:102FC000CD2F0008D12F0008402202E0802200E02F
:102FD000C0221143E2B2012A01D0182200E00822E7
:102FE000DC0BF625254015439A09FC2414402C439C
:102FF0005A07120E22431B0E1B03D218194B1940FD
:103000001143816005B0F0BD17480F21174A01F048
:1030100043FA0C481D210C4A01F03EFA0E481C21CF
:103020000E4A01F039FA0C21044A01F021FA04A8F1
:103030000849018000F0BAFA00F030FB385A000865
:1030400048590008F45600081457000800080240C8
:10305000FFFF000029000000485A0008645A0008D9
:1030600000020020C0CF0300745A0008845A0008F0
:10307000F0B503AF89B01D461646044600F04FF97F
:10308000A16800297CD10190B868002132460E4623
:10309000C9430591A160009020460C3006902B4654
:1030A00000F0ACF8002863D001200390C003089022
:1030B000364D23460796029424E0531E9A4192000F
:1030C000324E33680425AB431343336002990A69D7
:1030D000D3031D46089C25400C46B669B6B26E4027
:1030E000520C9B19079D2E466A41181A049882417A
:1030F0003ED3264D28680421884328600598206027
:103100006060234634461869C1030A461E46089B80
:103110001A40AB699DB25540430C4A196341069869
:1031200000F0A2F803C6083E3269D3031D46089C8E
:1031300025403446154EB669B6B26E40520C9B1906
:10314000079D2E466A411D1A15468D41D1D285B282
:103150000E4CE562C31A04910D4695419A0BAB04DF
:10316000D218AB0BD21EB341039AA6D33246A4E7C2
:10317000A068401CA060019800F0DEF809B0F0BD26
:10318000014801F0DFF8C046945A00080C400140A5
:10319000D0B502AF05480069C2030549096851402E
:1031A0008BB2440C0021D0186141D0BD3800002002
:1031B0002440014080B500AF82B00346009203482E
:1031C0001A460B46FFF754FF02B080BD38000020BE
:1031D00080B500AF82B0FFF7DBFF074A002301F0A4
:1031E000C3F94A0A0192C905400A4018009068468E
:1031F00000F03EFA02B080BD093D0000F0B503AF1B
:1032000083B0029316460190BD68284600F06CF921
:1032100004468068002808D003CC083C801B029834
:1032200081411CD2002003B0F0BD2660029860608E
:103230000199086802900C602968686809688847E5
:1032400005460E46A068002802D0C168E06888479D
:10325000A560E66002982061012003B0F0BD266001
:103260006060012003B0F0BDF0B503AF87B00593F7
:103270000492034600200290C5431E68002E43D0EE
:10328000069501952946029D07E00694014630699E
:10329000186035611E68002E33D034687068049A57
:1032A000121B059A824111D203932346019D6B4064
:1032B00002466A401A43069D631B03468B4112D2A5
:1032C00013D2002A029D039B14D1DEE7B268B560D9
:1032D000002ADCD0F06852680C461D4690472B4609
:1032E000029D2146D3E70846EBD32C46002A029DD7
:1032F000039BCAD010360694014633461E68002E42
:10330000CBD1069807B0F0BD06952946069807B0C0
:10331000F0BD80B500AFFEE780B500AF80BDD0B591
:1033200002AF00F017F80446012004406042444117
:1033300000F009F82046D0BD80B500AF002801D0CC
:1033400000F003F880BD72B6704762B67047BFF3F5
:103350004F8F7047EFF31080704700DEFEDEF0B550
:1033600003AF81B00546FFF7DAFF06462C68002060
:103370002860002C0DD000966E68A1683046884702
:1033800068686E60009E29682C60002901D0C968B9
:1033900088473046FFF7D0FF01B0F0BDF0B503AF6E
:1033A00083B0064630C9FFF7BAFF2A460290356857
:1033B000002030607068002D09D0A54207D19042EE
:1033C00005D135600298FFF7B7FF03B0F0BD01905B
:1033D0002168104688473268306070687160002A42
:1033E00001D0D1688847002DECD0E9680198884762
:1033F0000298FFF7A1FF03B0F0BDB0B502AF0C46D5
:1034000005460862FFF78BFF2968E1612C600029FF
:1034100002D0FFF791FFB0BD40BFFFF78DFFB0BDF9
:1034200080B500AF80BDD0B502AF0446FFF777FF8F
:10343000A16902220A43A261890705D4216A0A68A8
:10344000E2610C60002A02D0FFF776FFD0BD40BFDA
:10345000FFF772FFD0BDD4D480B500AF014601485C
:1034600080BDC046A45A0008F0B503AF81B0054640
:10347000FFF755FF2C6800262E60FFF75DFF002C3C
:103480000FD0E569E661FFF74AFFA1690222914387
:10349000A161FFF751FF616A20468847002D2C4645
:1034A000EFD101B0F0BDD4D480B500AF03C9CB6873
:1034B00001496822984780BDB45A000880B500AF22
:1034C00082B00168064A914202D1406802B080BDD4
:1034D00001A80449018000F069F800F0DFF8C04657
:1034E000A45A00082B00000080B500AFFFF7E6FFEC
:1034F00080BD80B500AF02684068C3681046984739
:1035000080BDF0B503AF81B000200090802903D2C8
:1035100068460170012128E03F22084610407F23C1
:10352000DC4300198D09CB0A06D169464870C020DA
:1035300005430D70022118E00B0B15402D190E0CE0
:1035400007D1694688704D70E02003430B7003215A
:103550000BE00F26F643890C314313401A196B46D2
:10356000D8709D705A70197004216846FEF727F8CC
:10357000002001B0F0BDD4D480B500AF13460A4698
:10358000014900F0B9F980BD1C5B0008D0B502AF5D
:1035900082B00446FDF7CEFF218801A801800221F8
:1035A000FEF70DF8FFF714FE02B0D0BDD0B502AFA4
:1035B00082B00446FDF7BEFF218801A801800221E8
:1035C000FDF7FDFFFFF704FEFDF7F4FF02B0D0BDED
:1035D000B0B502AF82B00C460546019101A80421A6
:1035E000FDF7EDFF28462146FDF7E9FF02B0B0BD2B
:1035F00080B500AF82B0018801A801800221FDF7EB
:10360000DEFF02B080BDD4D480B500AF86B0029199
:1036100001900848049001A8039005A80649074AAC
:1036200003AB00F069F906480121FDF7C8FF06B0B9
:1036300080BDC046F33400081C5B0008604D0008E4
:10364000345B000880B500AF82B0017801A801703A
:103650000121FDF7B4FF02B080BD80B500AF82B09C
:103660000068019001A80421FDF7A9FF02B080BD08
:1036700080B500AF82B00168406801900091684653
:103680000821FDF79CFF02B080BD80B500AF084661
:103690001146FDF794FF002080BDD4D480B500AF63
:1036A00002480E21024A00F0F7FEC046355B0008D2
:1036B000445B000880B500AF80BDD4D4F0B503AF43
:1036C00081B00093164604460025FFF761FD80197E
:1036D000009A51412A466A41012A03D0257203C447
:1036E00001B0F0BD02482821024A00F077FEC04632
:1036F000545B00087C5B0008B0B502AF0D46044681
:10370000007A00280AD0FFF743FD02460B4603CC9F
:10371000083C121A8B4103D30020B0BD03CC083CF7
:103720002A68FFF747FD01202072B0BD80B500AFC9
:1037300002684068C3681046984780BD80B500AFF6
:103740000B4606C8184600F0D5FA80BDF0B503AFA9
:103750008BB0164602910346C1087D29019011469F
:1037600051D30896721E0024524E02980990019D72
:1037700007922846314601F00CF90694079B191967
:103780000A91CA1E08998A4200D383E01946049020
:1037900046430395AA1B93B29B08474843435C0CDE
:1037A0006600474DA85D059009984318D81E0599F5
:1037B00001700A98801E0899884265D2A8199E1E39
:1037C000407830700A98401E884257D26420604387
:1037D000101A80B24200A85C5B1E18700A988842DA
:1037E00045D2A8184078079A09998854091F099169
:1037F000069C241F334803998142049B1D462D4E8D
:10380000B7D8089E3119092B1CD90A91891EB142DB
:1038100047D29AB29208284C5443620C6424544311
:10382000181B80B24400264B185D029D68540A980C
:10383000401EB0423AD21B195B782B5401980028E5
:1038400005D109E01A46029D0198002804D0002AFB
:1038500002D108460BB0F0BD491EB14221D2500042
:10386000174A10184078685408460BB0F0BD069807
:1038700008990818401E114A00F0FAFD0698081829
:10388000801E0E4A00F0F4FD06980818C01E0B4A70
:1038900000F0EEFD069808990818001F074A00F08E
:1038A000E7FD064A0846314600F0E2FD034A31468C
:1038B00000F0DEFD102700007B140000545C0008BF
:1038C0008C5B00087F969800F0B503AF85B00C467E
:1038D000006802AD0A2629463246FFF737FF311A43
:1038E0002818009001910121002320460A4600F08B
:1038F000C9F805B0F0BDD4D4F0B503AF8BB016460F
:10390000DA0700D090E00291069003933478002CFF
:1039100000D18FE00298C06805900020049001203B
:10392000019003E03478002C00D183E0751C60B274
:10393000002808D4069829462246059B9847002867
:103940007BD12E19EEE7802C17D0C02C1BD1002084
:103950000A903B4809900298089006980790049CAA
:10396000E100039A505851184A6807A99047002867
:1039700063D1641C04942E46D4E728786978090240
:103980000C18F51CD6E7E0070BD12D480022A10743
:1039900015D529786B781B025B18AD1C610711D413
:1039A00015E02878697809020818A9780904EA78E6
:1039B0001206511808182D1D0022A107E9D413463C
:1039C000610704D529786A7812025218AD1C2107C4
:1039D00003D42E46E10608D40BE029786E7836022F
:1039E00071180491AE1CE10603D5D900039B591848
:1039F0008B88A10601D4039C03E0D100039C6118CD
:103A00008A8807A9CA818B81099002980890069834
:103A10000790049DEA00A058A21852689047002819
:103A20000BD16D1C04957DE7CC685A083146A04740
:103A30000BB0F0BD00200BB0F0BD01980BB0F0BD95
:103A400020000060F0B503AF81B01C460D46112187
:103A500009048A420AD02B69064611469847014656
:103A60003046002902D0012001B0F0BD002C05D065
:103A7000BA68EB682146984701B0F0BD002001B05C
:103A8000F0BDD4D4F0B503AF8BB007930A920546CE
:103A9000FC68002906D09448401CAE68304038D0FD
:103AA0002B2238E0AE68631C2D223002099637D5F0
:103AB00007991029069236D200293AD00593089525
:103AC00004940323084618400390042900D38DE092
:103AD00000221046039E002E049C089D059B29D0C1
:103AE0000A998B564021C9438B4200DD401C012EB0
:103AF0000DD00A9B9A180123D3568B4200DD401C3F
:103B0000022E04D00223D2568A4200DD401C059BBF
:103B100010E011210A04400D031930020996C7D4A0
:103B200000200A9008E00A981E4600F0DFF93346AC
:103B300000E00020C318069AB8680590AE89B34229
:103B400016D204940999C80126D406922A466648DA
:103B500008400890F31A4800800F00252C46C04604
:103B600078440079400087447D017B011C4679E060
:103B7000264630CD07980090204629460A9BFFF73D
:103B800061FF00287DD1EB682046059932469847B1
:103B9000014608460BB0F0BD1C46A9685348039186
:103BA000084053494018A860E868029029680895C1
:103BB0006D68079800900991084629460A9BFFF70F
:103BC00041FF01210028E4D10A91301B002684B274
:103BD000B0B2A04233D22A69302109989047761CAE
:103BE0000028F5D00A9908460BB0F0BD0C250D4011
:103BF0000022104603E0121D954200D16AE70A999F
:103C00008E564021C9438E4200DD401C0A9CA618F6
:103C1000012434578C4207DC022434578C4208DCE0
:103C2000F4568C42E7DD08E0401C022434578C42F5
:103C3000F6DD401CF4568C42DDDD401CDBE7EB6812
:103C400009980599049A984700280A99A1D10898DB
:103C5000039981600299C160002108460BB0F0BD54
:103C600098B244080393106809905668A0B2A9B2AC
:103C700081420AD232690998089990476D1C002840
:103C8000F4D0012108460BB0F0BD07980090099DC3
:103C900028463146069A0A9BFFF7D4FE01210028E8
:103CA00000D076E7F36828460D460599049A9847B0
:103CB0002946002800D06CE70398001B002480B23E
:103CC0000A900794A0B201210A9A904200D3079962
:103CD000099800D35DE732690D4608999047294657
:103CE000641C0028EED054E7FFFF1F000000E09F97
:103CF00030000020F0B503AF87B00E460390836814
:103D0000D900880F2DD0002902962CD4102A0692B3
:103D10004DD2002A00D1AAE00593032110460840A5
:103D20000490042A00D3B3E0002319460498002825
:103D30004FD0F0564022D243904200DD491C0498F7
:103D4000012846D0F31801201856904200DD491C86
:103D5000049802283DD002201856904239DD491CB3
:103D600037E0069288E005930398C18900292AD09C
:103D7000B2180020069035460B4606E0651C281B4D
:103D8000069C041906945B1E21D095421ED02C4639
:103D90000026AD57002DF1D5EDB2E02D03D3F02D67
:103DA00003D3251DEBE7A51CE9E7E51CE7E7304653
:103DB00011461C4600F09AF8234601460398828972
:103DC000914259D20AE00026069600E01E46891B61
:103DD000029E059B0398828991424DD24248184029
:103DE0000490521A5800810F00242546794409791D
:103DF00049008F4405010305154601E090B24508CE
:103E00000192039801680591466801200390A8B2C9
:103E1000A1B281420AD23269059804999047641C84
:103E20000028F4D00399084607B0F0BDF368059860
:103E30000299069A98470028039915D10198401BCA
:103E4000002480B206900394A0B20121069A904209
:103E500000D3039908D2326905980D46049990471A
:103E60002946641C0028EFD0084607B0F0BD0021A9
:103E7000039882899142B1D3039801684068C3686E
:103E800008463146069A98470146084607B0F0BDF5
:103E90000C460C20104000231946224603E01B1D4F
:103EA000984200D142E7F5564024E443A54200DDA4
:103EB000491CF5180126AE57A64208DC0226AE576B
:103EC000A64209DC029EAD56A542E8DD09E0491C88
:103ED0000226AE57A642F5DD491C029EAD56A5420C
:103EE000DDDD491CDBE7C046FFFF1F00F0B503AF77
:103EF00088B00246C31C032083439C1AA1421ED2F1
:103F0000002900D1A8E10B4603400693042900D301
:103F1000A5E10024079406980028079800D199E1AC
:103F200013574021C9438B4202DD0798401C07907C
:103F30000698012800D0E4E1079808B0F0BD0D1BF9
:103F40000594AC080694DBD00495294601400791FE
:103F5000002593422C4621D0D31AC1438B420395AE
:103F600000D8AAE100210C4655564023DB439D4270
:103F700000DD641C039D059E012E0FD02E465118B6
:103F800001254D579D4200DD641C059D022D04D086
:103F900002254957994200DD641C3546059953189E
:103FA000079900291CD0E349049A0A401E46991833
:103FB00000254B574022D243934200DD0125079B49
:103FC000012B0CD00123CB56934200DD6D1C079BC7
:103FD000022B04D00223C956914200DD6D1C3346EA
:103FE00002902819D64D069E14E00023039C069EDD
:103FF000361B059A51180791190AD04A13401140EF
:10400000C918079BCC4A5143090C08180499002988
:1040100000D0F5E0002E00D11CE11C46C02E334636
:1040200000D3C0231946029A1140049103939900CA
:10403000042E06960594D8D30790019110390B09E8
:10404000581C3029009002D20023264676E0014613
:1040500091430023264672689409D243D209224331
:104060002A403468A009E443E40904432C40E018E2
:104070001018B2689309D243D2091A432A40101883
:10408000F2689309D243D2091A432A4010183269C0
:104090009309D243D2091A432A401018726993092E
:1040A000D243D2091A432A401018B2699309D24365
:1040B000D2091A432A401018F2699309D243D2094F
:1040C0001A432A401018326A9309D243D2091A437C
:1040D0002A401018726A9309D243D2091A432A401F
:1040E0001018B26A9309D243D2091A432A40101811
:1040F000F26A9309D243D2091A432A401018326B4C
:104100009309D243D2091A432A401018726B9309BB
:10411000D243D2091A432A401018B26B9309D243F2
:10412000D2091A432A401018F26B9309D243D209DC
:104130001A432A4013184036091F8CD10298009C5C
:1041400004400798019900D150E770688109C04385
:10415000C0090843284031688A09C943C909114385
:104160002940C9184018B1688A09C943C9091143CF
:1041700029400818F1688A09C943C909114329402F
:104180000B18012C39D070698109C043C00908435C
:10419000284031698A09C943C90911432940C9180E
:1041A0004018B1698A09C943C9091143294008184F
:1041B000F1698A09C943C909114329400B18022C26
:1041C0001BD0706A8109C043C00908432840316A86
:1041D0008A09C943C90911432940C9184018B16A5D
:1041E0008A09C943C909114329400818F16A8A0993
:1041F000C943C909114329400B1807980199F5E6ED
:104200000790FC200440A200059EB0588309C043DB
:10421000C1091943049B2940012B11D0B2185068E1
:104220001E468309C043C009184328404118022E86
:1042300006D090688209C043C00910432840411845
:10424000080A3E4A1140104040183B494143090CBE
:104250000798081808B0F0BD002008B0F0BD8143F1
:104260000024079403E0241DA14200D153E6165711
:104270004025ED43AE4202DD079B5B1C07931619F8
:104280000123F356AB4207DC0223F356AB420ADCB0
:104290003356AB42E7DD0CE0079B5B1C0793022320
:1042A000F356AB42F4DD079B5B1C07933356AB42DE
:1042B000D9DD079B5B1C0793D5E700210C4602E084
:1042C000091D00D150E655564023DB439D4200DDD9
:1042D000641C55180126AE579E4207DC0226AE57D5
:1042E0009E4208DC2D569D42EADD08E0641C022651
:1042F000AE579E42F6DD641C2D569D42E0DD641CE7
:10430000DEE712190123D3568B4202DD0798401CC9
:1043100007900698022802D1079808B0F0BD022342
:10432000D2568A4202DC079808B0F0BD0798401CBC
:1043300008B0F0BDFCFFFF7F01000100FF00FF009F
:104340000101010180B500AF84B00246034802902C
:1043500003A80190024801A900F0A4F8C144000894
:10436000604D000880B500AF86B090420DD9009036
:1043700001921648059001A90491039068460290A5
:10438000154802A91A4600F08DF891420FD88842CC
:104390000DD9009001910D48059001A90491039059
:1043A000684602900B4802A91A4600F07BF800917B
:1043B00001920648059001A9049103906846029075
:1043C000034802A91A4600F06DF8C046C938000833
:1043D00029510008624D00086051000880B500AF07
:1043E00084B001910090044803906846029003480D
:1043F00002A900F057F8C0463D370008604D00089C
:1044000080B500AF024602482B2100F045F8C046B7
:10441000645C000880B500AF88B001910090039300
:1044200002920648079002A8069005480590684643
:104430000490044804A9BA6800F034F82D37000845
:104440003D3700081D4B000880B500AF024602480A
:10445000332100F027F8C0468F5C000880B500AF1C
:1044600002460248472100F01DF8C046A85C00083B
:10447000FEB506AF0191009005480590694604918C
:10448000039001A80290034802A900F00BF8C0466F
:10449000C9380008B84E000880B500AF4900491C73
:1044A00000F000F880B500AF86B00291019003A83B
:1044B00001210181049201A90391FCF775FED4D476
:1044C00080B500AF084602491822FFF713FC80BDF3
:1044D000CB5C0008F0B503AF8BB0054650C9F3685C
:1044E0001C490C22204602939847012100281BD129
:1044F000019100956868416804910168039116492B
:104500000A9102460C32099208910830079013482C
:10451000069003A80590124A05AB20463146FFF7E6
:10452000EBF9002803D0019908460BB0F0BD0D4906
:1045300002222046029B984700280199F4D1009856
:1045400000680CC820463146FFF7D6F901460846F8
:104550000BB0F0BDE35C0008C93800083D37000827
:1045600072530008EF5C0008F0B503AF84B003930A
:10457000144602910190050C92B2009229465143D3
:1045800082B2230C16465E430020711840410E0C87
:104590000004861908045D4300994A4310187541C8
:1045A000029A62430399019B59438918691804B020
:1045B000F0BDF0B503AF83B00246884203D20020BD
:1045C000114603B0F0BD100C002610238142344682
:1045D00030D90294144631D9230A0820994232D99D
:1045E000334600D8034601932309042099422ED96B
:1045F00033462FD9A0080225814230D9304600D851
:104600002846009364080125A1422C4600D934466F
:10461000029E019B9E19009BF318181803199D40D8
:104620000C469C40161B8E421DD23246284611462F
:1046300003B0F0BD1C4602941446CDD80446230AAC
:1046400008209942CCD81C463346CBD9CBE71C4630
:104650003346CFD80346A00802258142CED804466F
:104660003046CDD9CDE7002C03D429462846324622
:1046700014E05B1E1F2200931A4001209040640842
:10468000321BD31701930290019B9843002A00DA52
:10469000324628438A420299009B91D3491E002B3F
:1046A0000BD003261E400AD055002A1B521C00D4F2
:1046B0001546012E06D15A1E13E0154613E0154685
:1046C0001A460EE06D002A1B521C00D41546022E1D
:1046D00001D19A1E05E06D002A1B521C00D415461C
:1046E000DA1E042B0AD21F2213402A46DA40294040
:1046F0000843114603B0F0BD121FF4D06D002E1B0D
:10470000761C0CD56D002E1B761C0DD56D002E1B56
:10471000761C0ED56D002E1B761CEDD40EE03546B2
:104720006D002E1B761CF1D435466D002E1B761CB9
:10473000F0D435466D002E1B761CDDD43546DBE704
:10474000F0B503AF8FB0102A15D30B92424203236A
:1047500008931A4085180A90A8422AD2541E002AAB
:104760000A9806460B4616D00B780370012A07D12B
:104770004B1C461C0FE003469C18A34241D362E049
:104780004B784370022A02D18B1C861C03E08B7885
:104790008370CB1CC61C032C0BD31C7834705C7844
:1047A00074709C78B470DC78F4701B1D361DAE42BA
:1047B000F3D10B98801A0B90089CA0432B188E18ED
:1047C00009962640079047D19D420B9A099E11D227
:1047D0003146086801C59D420CD2486801C59D421A
:1047E00008D2886801C59D4204D2C86801C510314D
:1047F0009D42EED32240079831180A989C18A34294
:1048000021D203251540521E002D0ED00E781E70A9
:10481000012D04D1491C5B1C032A08D213E04E78F9
:104820005E70022D11D1891C9B1C032A0BD30A78C0
:104830001A704A785A708A789A70CA78DA70091DA4
:104840001B1DA342F3D10FB0F0BD8D789D70C91C24
:10485000DB1C032AEBD2F6E7002406940E940EAC80
:10486000A41905940424A41B0494E407009606D01C
:10487000099C2478059E3470009E01240694049CB3
:10488000A40708D5099C0492069AA45A059E069A84
:10489000B452049A009EF40003940E9C06942C1DBE
:1048A0009C4236D2744209190591039D694218242D
:1048B0000C4002940A9904912946069CCC40069427
:1048C00005998918019149680C46029DAC40069DE6
:1048D0002C43049DAC50AD182C4608349C421CD28D
:1048E000039CE140019CA46806940195029DAC40A4
:1048F0000C4301994C600499083104918D18291DCD
:10490000059C0834059499420399D6D305988018DC
:1049100001E00998801B059004E00198001D0590B6
:104920002D1D06910DA80021049001700CA80170A6
:10493000012E0E460C4602910B9A09D0059C607917
:1049400026790DAC26700402022002900CA8049077
:104950000998C0070AD00598001D0299405C049987
:1049600008700DA806780CA8007801040596039835
:10497000404204901826049806400C4305990C43C5
:10498000B44006990398C14021432960089C099EC0
:1049900030E780B500AFFFF70CFE80BD80B500AFFB
:1049A000FFF7CEFE80BDF0B503AF102932D34442ED
:1049B000032214400319984218D2651E002C0BD014
:1049C00000260670012C03D1401C032D06D20DE0F9
:1049D0004670022C42D1801C032D07D30025C570E0
:1049E000857045700570001D9842F8D1091B084676
:1049F0009043181883420CD2002410C3834208D27B
:104A000010C3834205D210C3834202D210C3834233
:104A1000F3D31140421890421AD203230B40491E8F
:104A2000002B0BD000240470012B03D1401C032960
:104A300006D20DE04470022B0BD1801C032907D352
:104A40000021C170817041700170001D9042F8D149
:104A5000F0BD8470C01C0329F2D2F9E78670C01C37
:104A6000032DBBD2C2E7D4D400B581B06A4600F0B2
:104A700003F8009901B000BDD0B502AF1446FFF7AE
:104A800098FD002C00D02160D0BD80B500AFFEE7BE
:104A9000433A5C55736572735C6D617274696E5CE8
:104AA0002E636172676F5C72656769737472795C9B
:104AB0007372635C696E6465782E6372617465738A
:104AC0002E696F2D31393439636638633662356249
:104AD000353537665C73746D33322D6D6574617076
:104AE00061632D32312E302E305C7372635C6368EB
:104AF0006970732F73746D33327530373363635C51
:104B00002E2E5C2E2E5C7065726970686572616C09
:104B1000735C657874695F75302E727300C0023AF9
:104B200020C0007372635C6D61696E2E7273004306
:104B30003A5C55736572735C6D617274696E5C2E5C
:104B4000636172676F5C72656769737472795C73B5
:104B500072635C696E6465782E6372617465732E2E
:104B6000696F2D31393439636638633662356235A1
:104B70003537665C656D62617373792D73746D335F
:104B8000322D302E362E305C7372635C7370695C2C
:104B90006D6F642E727300433A5C55736572735C7B
:104BA0006D617274696E5C2E636172676F5C7265B1
:104BB0006769737472795C7372635C696E6465783B
:104BC0002E6372617465732E696F2D3139343963C8
:104BD00066386336623562353537665C6465666DA6
:104BE000742D7274742D312E312E305C7372635CAF
:104BF0006368616E6E656C2E727300433A5C557328
:104C00006572735C6D617274696E5C2E636172674C
:104C10006F5C72656769737472795C7372635C69E7
:104C20006E6465782E6372617465732E696F2D31C1
:104C30003934396366386336623562353537665CD8
:104C4000656D62617373792D73746D33322D302EFF
:104C5000362E305C7372635C657874695C6D6F646A
:104C60002E727300433A5C55736572735C6D6172AA
:104C700074696E5C2E636172676F5C7265676973DD
:104C80007472795C7372635C696E6465782E6372AA
:104C9000617465732E696F2D3139343963663863F9
:104CA00036623562353537665C73746D33322D6D1F
:104CB0006574617061632D32312E302E305C7372F9
:104CC000635C63686970732F73746D33327530374A
:104CD0003363635C2E2E5C2E2E5C70657269706887
:104CE0006572616C735C646D616D75785F76312E91
:104CF000727300433A5C55736572735C6D617274D4
:104D0000696E5C2E636172676F5C7265676973744C
:104D100072795C7372635C696E6465782E6372612C
:104D20007465732E696F2D31393439636638633693
:104D3000623562353537665C656D62617373792DF6
:104D400073746D33322D302E362E305C7372635C8B
:104D5000646D615C646D615F62646D612E7273008D
:104D6000C00016736C69636520696E646578207392
:104D7000746172747320617420C00D206275742098
:104D8000656E647320617420C000433A5C5573659E
:104D900072735C6D617274696E5C2E636172676FB1
:104DA0005C72656769737472795C7372635C696E57
:104DB0006465782E6372617465732E696F2D313965
:104DC00034396366386336623562353537665C641C
:104DD00065666D742D7274742D312E312E305C73B6
:104DE00072635C6C69622E727300433A5C55736542
:104DF00072735C6D617274696E5C2E636172676F51
:104E00005C72656769737472795C7372635C696EF6
:104E10006465782E6372617465732E696F2D313904
:104E200034396366386336623562353537665C65BA
:104E30006D62617373792D73746D33322D302E363C
:104E40002E305C7372635C7263635C6C2E727300F1
:104E5000433A5C55736572735C6D617274696E5C24
:104E60002E636172676F5C72656769737472795CD7
:104E70007372635C696E6465782E637261746573C6
:104E80002E696F2D31393439636638633662356285
:104E9000353537665C656D62617373792D73746D3A
:104EA00033322D302E362E305C7372635C646D614C
:104EB0005C6D6F642E72730020696E646578206F7C
:104EC0007574206F6620626F756E64733A20746823
:104ED00065206C656E20697320C012206275742095
:104EE00074686520696E64657820697320C000432A
:104EF0003A5C55736572735C6D617274696E5C2E99
:104F0000636172676F5C72656769737472795C73F1
:104F100072635C696E6465782E6372617465732E6A
:104F2000696F2D31393439636638633662356235DD
:104F30003537665C656D6265646465642D68616CB7
:104F40002D6173796E632D312E302E305C73726358
:104F50005C7370692E727300433A5C5573657273AB
:104F60005C6D617274696E5C2E636172676F5C72F6
:104F7000656769737472795C7372635C696E64658A
:104F8000782E6372617465732E696F2D31393439EF
:104F90006366386336623562353537665C73746DC7
:104FA00033322D6D6574617061632D32312E302E78
:104FB000305C7372635C63686970732F73746D33F4
:104FC000327530373363635C2E2E5C2E2E5C706539
:104FD000726970686572616C735C62646D615F7642
:104FE000312E727300433A5C55736572735C6D6168
:104FF0007274696E5C2E636172676F5C726567695B
:10500000737472795C7372635C696E6465782E6325
:1050100072617465732E696F2D3139343963663866
:105020006336623562353537665C656D6261737310
:10503000792D73746D33322D302E362E305C7372B1
:10504000635C74696D655F6472697665725C6770D4
:1050500031362E727300433A5C55736572735C6D22
:10506000617274696E5C2E636172676F5C726567F2
:1050700069737472795C7372635C696E6465782EAF
:105080006372617465732E696F2D313934396366CB
:10509000386336623562353537665C656D626173DB
:1050A00073792D74696D652D302E342E305C7372DA
:1050B000635C74696D65722E727300433A5C55735C
:1050C0006572735C6D617274696E5C2E6361726788
:1050D0006F5C72656769737472795C7372635C6923
:1050E0006E6465782E6372617465732E696F2D31FD
:1050F0003934396366386336623562353537665C14
:10510000667574757265732D7574696C2D302E33E8
:105110002E33325C7372635C6675747572655C7392
:10512000656C6563742E7273001072616E67652022
:10513000656E6420696E64657820C022206F757486
:10514000206F662072616E676520666F7220736CD7
:10515000696365206F66206C656E67746820C000A7
:105160001272616E676520737461727420696E6477
:10517000657820C022206F7574206F662072616E82
:10518000676520666F7220736C696365206F6620A7
:105190006C656E67746820C000433A5C5573657235
:1051A000735C6D617274696E5C2E636172676F5CB3
:1051B00072656769737472795C7372635C696E643B
:1051C00065782E6372617465732E696F2D31393481
:1051D000396366386336623562353537665C656DCE
:1051E00062617373792D73746D33322D302E362EC8
:1051F000305C7372635C7263635C62642E72730012
:105200002F72757374632F653430383934376266A2
:1052100064323030616634326462333232646166E3
:105220003066616466653765323664336264312F97
:105230006C6962726172792F636F72652F7372632A
:105240002F666D742F6E756D2E727300433A5C5528
:10525000736572735C6D617274696E5C2E636172EA
:10526000676F5C72656769737472795C7372635C93
:10527000696E6465782E6372617465732E696F2D33
:1052800031393439636638633662356235353766AD
:105290005C6173796E632D627574746F6E2D302E40
:1052A000322E305C7372635C6C69622E72730043E1
:1052B0003A5C55736572735C6D617274696E5C2ED5
:1052C000636172676F5C72656769737472795C732E
:1052D00072635C696E6465782E6372617465732EA7
:1052E000696F2D313934396366386336623562351A
:1052F0003537665C656D62617373792D74696D65B0
:105300002D302E342E305C7372635C696E73746161
:105310006E742E727300433A5C55736572735C6DE4
:10532000617274696E5C2E636172676F5C7265672F
:1053300069737472795C7372635C696E6465782EEC
:105340006372617465732E696F2D31393439636608
:10535000386336623562353537665C6465666D7410
:105360002D312E302E315C7372635C6C69622E724B
:105370007300C0013AC0013AC0000000FB4B0008B6
:10538000680000006C01000041000000FB4B0008B9
:105390006800000067010000420000002F4B000879
:1053A00067000000D4050000470000004C520008D0
:1053B00062000000550000003C0000004C52000854
:1053C00062000000B3000000240000004C520008FE
:1053D00062000000AC000000280000004C520008F1
:1053E00062000000A50000002A0000004C520008E6
:1053F000620000004D000000330000004C52000825
:1054000062000000B80000002400000056500008B0
:10541000640000001400000064000000504E00080A
:10542000670000008C000000060000002F4B000801
:1054300067000000C9030000320000002F4B000885
:1054400067000000BD0300004D000000FB4B00089A
:1054500068000000C90000002A000000FB4B0008A3
:1054600068000000BE0000002B00000063616C6C4F
:1054700065642060526573756C743A3A756E777224
:105480006170282960206F6E20616E206045727205
:10549000602076616C756500EF4E000868000000C2
:1054A000A20000004A00000063616E6E6F742070FD
:1054B0006F6C6C2053656C656374207477696365E9
:1054C000BB5000086D0000006F0000002A000000C3
:1054D000696E7465726E616C206572726F723A20CB
:1054E000656E746572656420756E7265616368616E
:1054F000626C6520636F6465BB5000086D0000003E
:105500006A00000019000000000000000000000018
:1055100001000000A9340008234B00080B00000024
:10552000260000000100000000FF00FF9600FF00C1
:1055300000000000234B00080B00000014000000D6
:105540005A000000000000000400000004000000F9
:10555000011200086465666D74206C6F6767657280
:105560002074616B656E207265656E7472616E7415
:105570006C7900008A4D00085F0000009600000072
:105580000D0000006465666D742072656C65617362
:1055900065206F7574206F6620636F6E7465787414
:1055A0008A4D00085F000000CB0000000D000000E5
:1055B000974B000863000000260000001F00000059
:1055C00070636C6B31000000C055000805000000DE
:1055D000706C6C315F710000D0550008060000004F
:1055E00053504931E05500080400000070636C6BB3
:1055F000315F74696D000000EC550008090000007F
:1056000054494D31350000000056000805000000E7
:105610000A081208FF10001800FF0E1C161CFF0ECF
:10562000101610FFEA4D0008650000002B01000075
:105630001C000000EA4D0008650000002A0100007F
:105640001C000000EA4D0008650000002901000070
:105650001C000000EA4D0008650000002C0100005D
:1056600021000000A0860100400D0300801A060002
:1056700000350C0040420F0080841E0000093D00F0
:1056800000127A000024F40000366E010048E801A0
:10569000006CDC02010000000000000000000000BF
:1056A00000000000000000000000000000000000FA
:1056B00000000000020000000400000008000000DC
:1056C0001000000040000000800000000001000009
:1056D00000020000010000000000000000000000C7
:1056E00000000000020000000400000008000000AC
:1056F00010000000617373657274696F6E206661DB
:10570000696C65643A206E203C2031367573697A85
:1057100065000000644C00088E00000019000000C5
:10572000090000009951000866000000A500000073
:105730003B000000FB4B0008680000004A0000002E
:1057400009000000617373657274696F6E20666191
:10575000696C65643A206E203C2033327573697A37
:1057600065000000904A00088C0000008A000000DC
:105770000D000000FB4B000868000000A3010000C2
:1057800009000000504E0008670000008C00000077
:1057900006000000010000000008024000000000B8
:1057A000000002400000000001000000000802406C
:1057B00001000000000002400100000001000000A4
:1057C0000008024002000000000002400200000049
:1057D0000100000000080240030000000000024039
:1057E0000300000001000000000802400400000067
:1057F0000000024004000000010000000008024018
:10580000050000000000024005000000010000004B
:1058100000080240060000000000024006000000F0
:1058200001000000000802400700000000040240E0
:105830000000000001000000000802400800000015
:1058400000040240010000000100000000080240C6
:1058500009000000000402400200000001000000F6
:10586000000802400A00000000040240030000009B
:1058700001000000000802400B000000000402408C
:1058800004000000617373657274696F6E20666155
:10589000696C65643A206E203C20387573697A65BE
:1058A000584F00088C00000048000000090000006C
:1058B0002F4B000867000000B50400001500000031
:1058C000617373657274696F6E206661696C65647B
:1058D0003A206E203C20347573697A65904A00083E
:1058E0008C0000003700000009000000F34C0008A5
:1058F0006C0000009304000025000000003001400F
:10590000100C180CFF000000010000000000000057
:105910000100000000000000010000000100000084
:1059200010101810FF000000E54F00087000000084
:10593000DA0000002A000000E54F000870000000B7
:10594000D80000002E000000010000000008024006
:105950000000000000000240000000000100000004
:1059600000080240010000000000024001000000A9
:105970000100000000080240020000000000024098
:1059800002000000010000000008024003000000C7
:105990000000024003000000010000000008024077
:1059A00004000000000002400400000001000000AC
:1059B0000008024005000000000002400500000051
:1059C0000100000000080240060000000000024044
:1059D000060000000100000000080240070000006F
:1059E0000004024000000000010000000008024026
:1059F0000800000000040240010000000100000057
:105A000000080240090000000004024002000000FB
:105A100001000000000802400A00000000040240EB
:105A20000300000001000000000802400B0000001D
:105A30000004024004000000504E0008670000000F
:105A40008C00000006000000617373657274696F5A
:105A50006E206661696C65643A206E203C20387562
:105A600073697A65584F00088C00000048000000F8
:105A7000090000006E6F7420696D706C656D656E55
:105A800074656400F34C00086C000000960100008F
:105A900029000000E54F00087000000066010000CA
:105AA0003300000059340008273400082734000868
:105AB0002134000842757379202D20546F6F206DBA
:105AC000616E7920696E7374616E636573206F66B1
:105AD0002074686973207461736B20617265206142
